{
  "contractName": "Customers",
  "abi": [
    {
      "constant": false,
      "inputs": [],
      "name": "stopContract",
      "outputs": [],
      "payable": false,
      "stateMutability": "nonpayable",
      "type": "function"
    },
    {
      "constant": false,
      "inputs": [
        {
          "name": "_salaryRatio",
          "type": "uint256"
        }
      ],
      "name": "setSalaryRatio",
      "outputs": [],
      "payable": false,
      "stateMutability": "nonpayable",
      "type": "function"
    },
    {
      "constant": true,
      "inputs": [],
      "name": "getAvailableJobs",
      "outputs": [
        {
          "name": "",
          "type": "uint256"
        }
      ],
      "payable": false,
      "stateMutability": "view",
      "type": "function"
    },
    {
      "constant": true,
      "inputs": [],
      "name": "getEconomicVariables",
      "outputs": [
        {
          "name": "",
          "type": "uint256"
        },
        {
          "name": "",
          "type": "uint256"
        },
        {
          "name": "",
          "type": "uint256"
        },
        {
          "name": "",
          "type": "uint256"
        },
        {
          "name": "",
          "type": "uint256"
        }
      ],
      "payable": false,
      "stateMutability": "view",
      "type": "function"
    },
    {
      "constant": false,
      "inputs": [],
      "name": "withdraw",
      "outputs": [],
      "payable": false,
      "stateMutability": "nonpayable",
      "type": "function"
    },
    {
      "constant": false,
      "inputs": [
        {
          "name": "_priceInWei",
          "type": "uint256"
        }
      ],
      "name": "setBeerPrice",
      "outputs": [],
      "payable": false,
      "stateMutability": "nonpayable",
      "type": "function"
    },
    {
      "constant": true,
      "inputs": [],
      "name": "wineStock",
      "outputs": [
        {
          "name": "",
          "type": "uint256"
        }
      ],
      "payable": false,
      "stateMutability": "view",
      "type": "function"
    },
    {
      "constant": false,
      "inputs": [],
      "name": "serveCustomer",
      "outputs": [],
      "payable": false,
      "stateMutability": "nonpayable",
      "type": "function"
    },
    {
      "constant": true,
      "inputs": [],
      "name": "getSharePrice",
      "outputs": [
        {
          "name": "",
          "type": "uint256"
        }
      ],
      "payable": false,
      "stateMutability": "view",
      "type": "function"
    },
    {
      "constant": true,
      "inputs": [],
      "name": "getTaxRatio",
      "outputs": [
        {
          "name": "",
          "type": "uint256"
        }
      ],
      "payable": false,
      "stateMutability": "view",
      "type": "function"
    },
    {
      "constant": false,
      "inputs": [
        {
          "name": "_dividendRatio",
          "type": "uint256"
        }
      ],
      "name": "setDividendRatio",
      "outputs": [],
      "payable": false,
      "stateMutability": "nonpayable",
      "type": "function"
    },
    {
      "constant": true,
      "inputs": [],
      "name": "getContractBalance",
      "outputs": [
        {
          "name": "",
          "type": "uint256"
        }
      ],
      "payable": false,
      "stateMutability": "view",
      "type": "function"
    },
    {
      "constant": true,
      "inputs": [],
      "name": "beerStock",
      "outputs": [
        {
          "name": "",
          "type": "uint256"
        }
      ],
      "payable": false,
      "stateMutability": "view",
      "type": "function"
    },
    {
      "constant": true,
      "inputs": [],
      "name": "getEmployeesListNumbers",
      "outputs": [
        {
          "name": "",
          "type": "uint256"
        },
        {
          "name": "",
          "type": "uint256"
        }
      ],
      "payable": false,
      "stateMutability": "view",
      "type": "function"
    },
    {
      "constant": true,
      "inputs": [],
      "name": "getTreasuryBalance",
      "outputs": [
        {
          "name": "",
          "type": "uint256"
        }
      ],
      "payable": false,
      "stateMutability": "view",
      "type": "function"
    },
    {
      "constant": false,
      "inputs": [
        {
          "name": "_name",
          "type": "string"
        }
      ],
      "name": "beOwner",
      "outputs": [],
      "payable": true,
      "stateMutability": "payable",
      "type": "function"
    },
    {
      "constant": false,
      "inputs": [],
      "name": "quitJob",
      "outputs": [],
      "payable": false,
      "stateMutability": "nonpayable",
      "type": "function"
    },
    {
      "constant": false,
      "inputs": [
        {
          "name": "_name",
          "type": "string"
        }
      ],
      "name": "beEmployee",
      "outputs": [],
      "payable": false,
      "stateMutability": "nonpayable",
      "type": "function"
    },
    {
      "constant": true,
      "inputs": [],
      "name": "getOwnerListNumbers",
      "outputs": [
        {
          "name": "",
          "type": "uint256"
        },
        {
          "name": "",
          "type": "uint256"
        }
      ],
      "payable": false,
      "stateMutability": "view",
      "type": "function"
    },
    {
      "constant": false,
      "inputs": [
        {
          "name": "_employee",
          "type": "address"
        }
      ],
      "name": "fireEmployee",
      "outputs": [],
      "payable": false,
      "stateMutability": "nonpayable",
      "type": "function"
    },
    {
      "constant": false,
      "inputs": [],
      "name": "resumeContract",
      "outputs": [],
      "payable": false,
      "stateMutability": "nonpayable",
      "type": "function"
    },
    {
      "constant": true,
      "inputs": [
        {
          "name": "_id",
          "type": "uint256"
        }
      ],
      "name": "getRevenueDistribution",
      "outputs": [
        {
          "name": "",
          "type": "uint256"
        },
        {
          "name": "",
          "type": "uint256"
        },
        {
          "name": "",
          "type": "uint256"
        },
        {
          "name": "",
          "type": "uint256"
        },
        {
          "name": "",
          "type": "uint256"
        }
      ],
      "payable": false,
      "stateMutability": "view",
      "type": "function"
    },
    {
      "constant": false,
      "inputs": [
        {
          "name": "_priceInWei",
          "type": "uint256"
        }
      ],
      "name": "setWinePrice",
      "outputs": [],
      "payable": false,
      "stateMutability": "nonpayable",
      "type": "function"
    },
    {
      "constant": true,
      "inputs": [],
      "name": "getGovBalance",
      "outputs": [
        {
          "name": "",
          "type": "uint256"
        }
      ],
      "payable": false,
      "stateMutability": "view",
      "type": "function"
    },
    {
      "constant": false,
      "inputs": [],
      "name": "beGovernment",
      "outputs": [],
      "payable": false,
      "stateMutability": "nonpayable",
      "type": "function"
    },
    {
      "constant": true,
      "inputs": [],
      "name": "getBarVariables",
      "outputs": [
        {
          "name": "",
          "type": "uint256"
        },
        {
          "name": "",
          "type": "uint256"
        },
        {
          "name": "",
          "type": "uint256"
        },
        {
          "name": "",
          "type": "uint256"
        },
        {
          "name": "",
          "type": "uint256"
        },
        {
          "name": "",
          "type": "uint256"
        }
      ],
      "payable": false,
      "stateMutability": "view",
      "type": "function"
    },
    {
      "constant": true,
      "inputs": [],
      "name": "getOrdersData",
      "outputs": [
        {
          "name": "",
          "type": "uint256"
        },
        {
          "name": "",
          "type": "uint256"
        }
      ],
      "payable": false,
      "stateMutability": "view",
      "type": "function"
    },
    {
      "constant": true,
      "inputs": [],
      "name": "getGovAddress",
      "outputs": [
        {
          "name": "",
          "type": "address"
        }
      ],
      "payable": false,
      "stateMutability": "view",
      "type": "function"
    },
    {
      "constant": true,
      "inputs": [],
      "name": "getBarFixData",
      "outputs": [
        {
          "name": "",
          "type": "string"
        },
        {
          "name": "",
          "type": "uint256"
        },
        {
          "name": "",
          "type": "address"
        },
        {
          "name": "",
          "type": "address"
        },
        {
          "name": "",
          "type": "uint256"
        },
        {
          "name": "",
          "type": "uint256"
        }
      ],
      "payable": false,
      "stateMutability": "view",
      "type": "function"
    },
    {
      "constant": true,
      "inputs": [
        {
          "name": "_address",
          "type": "address"
        }
      ],
      "name": "getUserAccount",
      "outputs": [
        {
          "name": "",
          "type": "string"
        },
        {
          "name": "",
          "type": "uint256"
        },
        {
          "name": "",
          "type": "uint256"
        }
      ],
      "payable": false,
      "stateMutability": "view",
      "type": "function"
    },
    {
      "constant": false,
      "inputs": [
        {
          "name": "_taxRatio",
          "type": "uint256"
        }
      ],
      "name": "setTaxRatio",
      "outputs": [],
      "payable": false,
      "stateMutability": "nonpayable",
      "type": "function"
    },
    {
      "payable": true,
      "stateMutability": "payable",
      "type": "fallback"
    },
    {
      "anonymous": false,
      "inputs": [],
      "name": "BuyOrderEvent",
      "type": "event"
    },
    {
      "anonymous": false,
      "inputs": [],
      "name": "EmployeeEvent",
      "type": "event"
    },
    {
      "anonymous": false,
      "inputs": [
        {
          "indexed": true,
          "name": "_govAddress",
          "type": "address"
        }
      ],
      "name": "GovEvent",
      "type": "event"
    },
    {
      "anonymous": false,
      "inputs": [
        {
          "indexed": true,
          "name": "_ownerAddress",
          "type": "address"
        }
      ],
      "name": "OwnerEvent",
      "type": "event"
    },
    {
      "anonymous": false,
      "inputs": [
        {
          "indexed": true,
          "name": "_govAddress",
          "type": "address"
        }
      ],
      "name": "TaxRatioEvent",
      "type": "event"
    },
    {
      "anonymous": false,
      "inputs": [],
      "name": "BeerPriceEvent",
      "type": "event"
    },
    {
      "anonymous": false,
      "inputs": [],
      "name": "WinePriceEvent",
      "type": "event"
    },
    {
      "anonymous": false,
      "inputs": [],
      "name": "SalaryRatioEvent",
      "type": "event"
    },
    {
      "anonymous": false,
      "inputs": [],
      "name": "DividendRatioEvent",
      "type": "event"
    },
    {
      "anonymous": false,
      "inputs": [],
      "name": "WithdrawEvent",
      "type": "event"
    },
    {
      "constant": false,
      "inputs": [],
      "name": "orderBeer",
      "outputs": [],
      "payable": true,
      "stateMutability": "payable",
      "type": "function"
    },
    {
      "constant": false,
      "inputs": [],
      "name": "orderWine",
      "outputs": [],
      "payable": true,
      "stateMutability": "payable",
      "type": "function"
    },
    {
      "constant": true,
      "inputs": [
        {
          "name": "customer",
          "type": "address"
        }
      ],
      "name": "getNbPendingOrders",
      "outputs": [
        {
          "name": "",
          "type": "uint256"
        }
      ],
      "payable": false,
      "stateMutability": "view",
      "type": "function"
    },
    {
      "constant": true,
      "inputs": [
        {
          "name": "_productId",
          "type": "uint256"
        }
      ],
      "name": "getPrice",
      "outputs": [
        {
          "name": "",
          "type": "uint256"
        }
      ],
      "payable": false,
      "stateMutability": "view",
      "type": "function"
    }
  ],
  "bytecode": "0x608060405260008060006101000a81548160ff0219169083151502179055506000600160006101000a81548173ffffffffffffffffffffffffffffffffffffffff021916908373ffffffffffffffffffffffffffffffffffffffff16021790555060006026556200006f620007f0565b33600060016101000a81548173ffffffffffffffffffffffffffffffffffffffff021916908373ffffffffffffffffffffffffffffffffffffffff1602179055506040805190810160405280600e81526020017f4841524420464f524b204341464500000000000000000000000000000000000081525060029080519060200190620000fd9291906200080a565b50681b1ae4d6e2ef5000006003819055506064600481905550600a60058190555061019060068190555060fa6007819055506021600881905550600a6009819055506028600a8190555060408051908101604052806040805190810160405280600f81526020017f424f4220544845204d414e41474552000000000000000000000000000000000081525081526020016000815250905080600d60003373ffffffffffffffffffffffffffffffffffffffff1673ffffffffffffffffffffffffffffffffffffffff1681526020019081526020016000206000820151816000019080519060200190620001f292919062000891565b5060208201518160010155905050600160153390806001815401808255809150509060018203906000526020600020016000909192909190916101000a81548173ffffffffffffffffffffffffffffffffffffffff021916908373ffffffffffffffffffffffffffffffffffffffff16021790555003600e60003373ffffffffffffffffffffffffffffffffffffffff1673ffffffffffffffffffffffffffffffffffffffff168152602001908152602001600020819055506001600f60003373ffffffffffffffffffffffffffffffffffffffff1673ffffffffffffffffffffffffffffffffffffffff16815260200190815260200160002060006101000a81548160ff02191690831515021790555060e060405190810160405280600060018111156200031d57fe5b8152602001665575e121efee698152602001600073ffffffffffffffffffffffffffffffffffffffff1681526020016000815260200160008152602001600081526020016000815250601760006002811015156200037757fe5b6007020160008201518160000160006101000a81548160ff02191690836001811115620003a057fe5b02179055506020820151816001015560408201518160020160006101000a81548173ffffffffffffffffffffffffffffffffffffffff021916908373ffffffffffffffffffffffffffffffffffffffff160217905550606082015181600301556080820151816004015560a0820151816005015560c0820151816006015590505060e0604051908101604052806001808111156200043a57fe5b8152602001663d0b0e85f485b88152602001600073ffffffffffffffffffffffffffffffffffffffff1681526020016000815260200160008152602001600081526020016000815250601760016002811015156200049457fe5b6007020160008201518160000160006101000a81548160ff02191690836001811115620004bd57fe5b02179055506020820151816001015560408201518160020160006101000a81548173ffffffffffffffffffffffffffffffffffffffff021916908373ffffffffffffffffffffffffffffffffffffffff160217905550606082015181600301556080820151816004015560a0820151816005015560c082015181600601559050506200055960006200057b640100000000026401000000009004565b6200057460016200057b640100000000026401000000009004565b5062000940565b60006017826002811015156200058d57fe5b600702019050620005df6064620005c26008548460010154620007846401000000000262002fd0179091906401000000009004565b620007ba6401000000000262002fb5179091906401000000009004565b81600301819055506200065960646200063c6009546200061f85600301548660010154620007d6640100000000026200336f179091906401000000009004565b620007846401000000000262002fd0179091906401000000009004565b620007ba6401000000000262002fb5179091906401000000009004565b8160040181905550620006f96064620006dc600a54620006bf8560040154620006a287600301548860010154620007d6640100000000026200336f179091906401000000009004565b620007d6640100000000026200336f179091906401000000009004565b620007846401000000000262002fd0179091906401000000009004565b620007ba6401000000000262002fb5179091906401000000009004565b81600501819055506200077881600501546200075b83600401546200073e85600301548660010154620007d6640100000000026200336f179091906401000000009004565b620007d6640100000000026200336f179091906401000000009004565b620007d6640100000000026200336f179091906401000000009004565b81600601819055505050565b60008082840290506000841480620007a75750828482811515620007a457fe5b04145b1515620007b057fe5b8091505092915050565b6000808284811515620007c957fe5b0490508091505092915050565b6000828211151515620007e557fe5b818303905092915050565b604080519081016040528060608152602001600081525090565b828054600181600116156101000203166002900490600052602060002090601f016020900481019282601f106200084d57805160ff19168380011785556200087e565b828001600101855582156200087e579182015b828111156200087d57825182559160200191906001019062000860565b5b5090506200088d919062000918565b5090565b828054600181600116156101000203166002900490600052602060002090601f016020900481019282601f10620008d457805160ff191683800117855562000905565b8280016001018555821562000905579182015b8281111562000904578251825591602001919060010190620008e7565b5b50905062000914919062000918565b5090565b6200093d91905b80821115620009395760008160009055506001016200091f565b5090565b90565b61351880620009506000396000f3006080604052600436106101b7576000357c0100000000000000000000000000000000000000000000000000000000900463ffffffff16806312253a6c146101d45780631a478b94146101eb5780631aa15bbe146102185780631f731c5d146102435780633ccfd60b1461028a5780634c2e589d146102a15780634e332317146102ce5780634fc6567a146102f957806352b55c10146103505780635b1dac60146103675780635ef32e2c1461039257806360f46935146103bd5780636f9fb98a146103ea5780638e29e0271461041557806399866b6d146104405780639b5655dc146104725780639cabe06e1461049d578063ace423ca146104cb578063b2372ddf146104e2578063b4b4e556146104ec578063b55c56c114610527578063b79b951614610559578063c4bc5da51461059c578063c655af3c146105b3578063d0057fd914610610578063d3cd0dc91461063d578063db41002b14610668578063e16e7d0b1461067f578063e7572230146106cd578063e81c07091461070e578063e9b1149b14610718578063ef4a63b81461074a578063fa33545c146107a1578063fb47e016146108ac578063fe303ebf14610976575b6000809054906101000a900460ff161515156101d257600080fd5b005b3480156101e057600080fd5b506101e96109a3565b005b3480156101f757600080fd5b5061021660048036038101908080359060200190929190505050610a1b565b005b34801561022457600080fd5b5061022d610ad8565b6040518082815260200191505060405180910390f35b34801561024f57600080fd5b50610258610ae9565b604051808681526020018581526020018481526020018381526020018281526020019550505050505060405180910390f35b34801561029657600080fd5b5061029f610b46565b005b3480156102ad57600080fd5b506102cc600480360381019080803590602001909291905050506110fb565b005b3480156102da57600080fd5b506102e36111b1565b6040518082815260200191505060405180910390f35b34801561030557600080fd5b5061033a600480360381019080803573ffffffffffffffffffffffffffffffffffffffff1690602001909291905050506111b7565b6040518082815260200191505060405180910390f35b34801561035c57600080fd5b50610365611200565b005b34801561037357600080fd5b5061037c611687565b6040518082815260200191505060405180910390f35b34801561039e57600080fd5b506103a7611696565b6040518082815260200191505060405180910390f35b3480156103c957600080fd5b506103e8600480360381019080803590602001909291905050506116a0565b005b3480156103f657600080fd5b506103ff61175d565b6040518082815260200191505060405180910390f35b34801561042157600080fd5b5061042a61177c565b6040518082815260200191505060405180910390f35b34801561044c57600080fd5b50610455611782565b604051808381526020018281526020019250505060405180910390f35b34801561047e57600080fd5b50610487611796565b6040518082815260200191505060405180910390f35b6104c96004803603810190808035906020019082018035906020019190919293919293905050506117a0565b005b3480156104d757600080fd5b506104e0611b05565b005b6104ea611b69565b005b3480156104f857600080fd5b50610525600480360381019080803590602001908201803590602001919091929391929390505050611e14565b005b34801561053357600080fd5b5061053c612085565b604051808381526020018281526020019250505060405180910390f35b34801561056557600080fd5b5061059a600480360381019080803573ffffffffffffffffffffffffffffffffffffffff169060200190929190505050612099565b005b3480156105a857600080fd5b506105b161215c565b005b3480156105bf57600080fd5b506105de600480360381019080803590602001909291905050506121d4565b604051808681526020018581526020018481526020018381526020018281526020019550505050505060405180910390f35b34801561061c57600080fd5b5061063b600480360381019080803590602001909291905050506122e7565b005b34801561064957600080fd5b5061065261239d565b6040518082815260200191505060405180910390f35b34801561067457600080fd5b5061067d6123a7565b005b34801561068b57600080fd5b506106946124ef565b60405180878152602001868152602001858152602001848152602001838152602001828152602001965050505050505060405180910390f35b3480156106d957600080fd5b506106f860048036038101908080359060200190929190505050612572565b6040518082815260200191505060405180910390f35b610716612584565b005b34801561072457600080fd5b5061072d612708565b604051808381526020018281526020019250505060405180910390f35b34801561075657600080fd5b5061075f612726565b604051808273ffffffffffffffffffffffffffffffffffffffff1673ffffffffffffffffffffffffffffffffffffffff16815260200191505060405180910390f35b3480156107ad57600080fd5b506107b6612750565b60405180806020018781526020018673ffffffffffffffffffffffffffffffffffffffff1673ffffffffffffffffffffffffffffffffffffffff1681526020018573ffffffffffffffffffffffffffffffffffffffff1673ffffffffffffffffffffffffffffffffffffffff168152602001848152602001838152602001828103825288818151815260200191508051906020019080838360005b8381101561086c578082015181840152602081019050610851565b50505050905090810190601f1680156108995780820380516001836020036101000a031916815260200191505b5097505050505050505060405180910390f35b3480156108b857600080fd5b506108ed600480360381019080803573ffffffffffffffffffffffffffffffffffffffff16906020019092919050505061285b565b6040518080602001848152602001838152602001828103825285818151815260200191508051906020019080838360005b8381101561093957808201518184015260208101905061091e565b50505050905090810190601f1680156109665780820380516001836020036101000a031916815260200191505b5094505050505060405180910390f35b34801561098257600080fd5b506109a160048036038101908080359060200190929190505050612d7b565b005b600060019054906101000a900473ffffffffffffffffffffffffffffffffffffffff1673ffffffffffffffffffffffffffffffffffffffff163373ffffffffffffffffffffffffffffffffffffffff161415156109ff57600080fd5b60016000806101000a81548160ff021916908315150217905550565b600060019054906101000a900473ffffffffffffffffffffffffffffffffffffffff1673ffffffffffffffffffffffffffffffffffffffff163373ffffffffffffffffffffffffffffffffffffffff16141515610a7757600080fd5b60008110158015610a885750606481105b15610ad55780600981905550610a9e6000612e4f565b610aa86001612e4f565b7f45f3a23c7e881769d4c9588f5bc54d911aaa242e98f6998be38c3703842c863560405160405180910390a15b50565b600060168054905060055403905090565b600080600080600080600060176000600281101515610b0457fe5b6007020160010154915060176001600281101515610b1e57fe5b600702016001015490508181600954600a546008549650965096509650965050509091929394565b600080600080600060019054906101000a900473ffffffffffffffffffffffffffffffffffffffff1673ffffffffffffffffffffffffffffffffffffffff163373ffffffffffffffffffffffffffffffffffffffff161480610bf55750600160009054906101000a900473ffffffffffffffffffffffffffffffffffffffff1673ffffffffffffffffffffffffffffffffffffffff163373ffffffffffffffffffffffffffffffffffffffff16145b80610c495750600f60003373ffffffffffffffffffffffffffffffffffffffff1673ffffffffffffffffffffffffffffffffffffffff16815260200190815260200160002060009054906101000a900460ff165b80610c9d5750601260003373ffffffffffffffffffffffffffffffffffffffff1673ffffffffffffffffffffffffffffffffffffffff16815260200190815260200160002060009054906101000a900460ff165b1515610ca857600080fd5b6000809054906101000a900460ff16151515610cc357600080fd5b3073ffffffffffffffffffffffffffffffffffffffff16319250600160009054906101000a900473ffffffffffffffffffffffffffffffffffffffff1673ffffffffffffffffffffffffffffffffffffffff163373ffffffffffffffffffffffffffffffffffffffff161415610da957600c5493506000600c819055503373ffffffffffffffffffffffffffffffffffffffff166108fc859081150290604051600060405180830381858888f193505050501515610d8057600080fd5b8383033073ffffffffffffffffffffffffffffffffffffffff1631141515610da457fe5b6110c9565b600060019054906101000a900473ffffffffffffffffffffffffffffffffffffffff1673ffffffffffffffffffffffffffffffffffffffff163373ffffffffffffffffffffffffffffffffffffffff161480610e4e5750600f60003373ffffffffffffffffffffffffffffffffffffffff1673ffffffffffffffffffffffffffffffffffffffff16815260200190815260200160002060009054906101000a900460ff165b15610f0e57600d60003373ffffffffffffffffffffffffffffffffffffffff1673ffffffffffffffffffffffffffffffffffffffff168152602001908152602001600020915081600101549350600082600101819055503373ffffffffffffffffffffffffffffffffffffffff166108fc859081150290604051600060405180830381858888f193505050501515610ee557600080fd5b8383033073ffffffffffffffffffffffffffffffffffffffff1631141515610f0957fe5b6110c8565b601260003373ffffffffffffffffffffffffffffffffffffffff1673ffffffffffffffffffffffffffffffffffffffff16815260200190815260200160002060009054906101000a900460ff1680610faf5750601360003373ffffffffffffffffffffffffffffffffffffffff1673ffffffffffffffffffffffffffffffffffffffff16815260200190815260200160002060009054906101000a900460ff165b156110c757601060003373ffffffffffffffffffffffffffffffffffffffff1673ffffffffffffffffffffffffffffffffffffffff168152602001908152602001600020905080600101549350600081600101819055506000601360003373ffffffffffffffffffffffffffffffffffffffff1673ffffffffffffffffffffffffffffffffffffffff16815260200190815260200160002060006101000a81548160ff0219169083151502179055503373ffffffffffffffffffffffffffffffffffffffff166108fc82600101549081150290604051600060405180830381858888f1935050505015156110a257600080fd5b8383033073ffffffffffffffffffffffffffffffffffffffff16311415156110c657fe5b5b5b5b7fedf4c498a33515202a60039146725349bac735e8e1de60466b9ac800302cbae160405160405180910390a150505050565b60008060019054906101000a900473ffffffffffffffffffffffffffffffffffffffff1673ffffffffffffffffffffffffffffffffffffffff163373ffffffffffffffffffffffffffffffffffffffff1614151561115857600080fd5b6017600060028110151561116857fe5b6007020190508181600101819055506111816000612e4f565b7facc7b9eaf1ff3bee21db509289180435b1fdd8f49212c96e318c1f87fa9420ba60405160405180910390a15050565b60075481565b6000601460008373ffffffffffffffffffffffffffffffffffffffff1673ffffffffffffffffffffffffffffffffffffffff168152602001908152602001600020549050919050565b611208613388565b60008060008060008060008060009054906101000a900460ff1615151561122e57600080fd5b601260003373ffffffffffffffffffffffffffffffffffffffff1673ffffffffffffffffffffffffffffffffffffffff16815260200190815260200160002060009054906101000a900460ff16151561128657600080fd5b60258054905060265410151561129b57600080fd5b6025805490506026541015156112b057600080fd5b60256026548154811015156112c157fe5b906000526020600020906007020160e060405190810160405290816000820160009054906101000a900460ff1660018111156112f957fe5b600181111561130457fe5b8152602001600182015481526020016002820160009054906101000a900473ffffffffffffffffffffffffffffffffffffffff1673ffffffffffffffffffffffffffffffffffffffff1673ffffffffffffffffffffffffffffffffffffffff16815260200160038201548152602001600482015481526020016005820154815260200160068201548152505097506000600181111561139f57fe5b886000015160018111156113af57fe5b14156113cd5760066000815480929190600190039190505550611404565b6001808111156113d957fe5b886000015160018111156113e957fe5b141561140357600760008154809291906001900391905055505b5b601460008873ffffffffffffffffffffffffffffffffffffffff1673ffffffffffffffffffffffffffffffffffffffff168152602001908152602001600020600081548092919060019003919050555087604001519650601060003373ffffffffffffffffffffffffffffffffffffffff1673ffffffffffffffffffffffffffffffffffffffff16815260200190815260200160002095506114b788608001518760010154612f9790919063ffffffff16565b86600101819055506114d88860600151600c54612f9790919063ffffffff16565b600c819055506114f78860c00151600b54612f9790919063ffffffff16565b600b819055508760a001515061151c6004548960a00151612fb590919063ffffffff16565b9450600d60008060019054906101000a900473ffffffffffffffffffffffffffffffffffffffff1673ffffffffffffffffffffffffffffffffffffffff1673ffffffffffffffffffffffffffffffffffffffff16815260200190815260200160002093506115b56115a26015805490506004546001010387612fd090919063ffffffff16565b8560010154612f9790919063ffffffff16565b8460010181905550600192505b60158054905083101561166b576015838154811015156115de57fe5b9060005260206000200160009054906101000a900473ffffffffffffffffffffffffffffffffffffffff169150600d60008373ffffffffffffffffffffffffffffffffffffffff1673ffffffffffffffffffffffffffffffffffffffff168152602001908152602001600020905084816001016000828254019250508190555082806001019350506115c2565b6026600081548092919060010191905055505050505050505050565b6000611691613003565b905090565b6000600854905090565b600060019054906101000a900473ffffffffffffffffffffffffffffffffffffffff1673ffffffffffffffffffffffffffffffffffffffff163373ffffffffffffffffffffffffffffffffffffffff161415156116fc57600080fd5b6000811015801561170d5750606481105b1561175a5780600a819055506117236000612e4f565b61172d6001612e4f565b7f31c61375bcb60f9eb97e6962303171d2eb0529486a0dbd519ecbbab89c21270460405160405180910390a15b50565b60003073ffffffffffffffffffffffffffffffffffffffff1631905090565b60065481565b600080601680549050600554915091509091565b6000600b54905090565b6117a86133e7565b60008060009054906101000a900460ff161515156117c557600080fd5b6004546015805490501015156117da57600080fd5b600f60003373ffffffffffffffffffffffffffffffffffffffff1673ffffffffffffffffffffffffffffffffffffffff16815260200190815260200160002060009054906101000a900460ff1615151561183357600080fd5b61183b613003565b3414151561184857600080fd5b6014848490501115151561185b57600080fd5b604080519081016040528085858080601f01602080910402602001604051908101604052809392919081815260200183838082843782019150505050505081526020016000815250915081600d60003373ffffffffffffffffffffffffffffffffffffffff1673ffffffffffffffffffffffffffffffffffffffff1681526020019081526020016000206000820151816000019080519060200190611901929190613401565b5060208201518160010155905050600160153390806001815401808255809150509060018203906000526020600020016000909192909190916101000a81548173ffffffffffffffffffffffffffffffffffffffff021916908373ffffffffffffffffffffffffffffffffffffffff16021790555003600e60003373ffffffffffffffffffffffffffffffffffffffff1673ffffffffffffffffffffffffffffffffffffffff168152602001908152602001600020819055506001600f60003373ffffffffffffffffffffffffffffffffffffffff1673ffffffffffffffffffffffffffffffffffffffff16815260200190815260200160002060006101000a81548160ff021916908315150217905550600d60008060019054906101000a900473ffffffffffffffffffffffffffffffffffffffff1673ffffffffffffffffffffffffffffffffffffffff1673ffffffffffffffffffffffffffffffffffffffff1681526020019081526020016000209050611a92611a7f613003565b8260010154612f9790919063ffffffff16565b8160010181905550600160009054906101000a900473ffffffffffffffffffffffffffffffffffffffff1673ffffffffffffffffffffffffffffffffffffffff167fd30bb139b3decb2474a8d5025c92d2845a89e67e468c2cf3da2a9bb70c5e7ac460405160405180910390a250505050565b601260003373ffffffffffffffffffffffffffffffffffffffff1673ffffffffffffffffffffffffffffffffffffffff16815260200190815260200160002060009054906101000a900460ff161515611b5d57600080fd5b611b6633613021565b50565b611b71613388565b6000809054906101000a900460ff16151515611b8c57600080fd5b6000600654111515611b9d57600080fd5b611ba76000613282565b34141515611bb457600080fd5b60176000600281101515611bc457fe5b6007020160e060405190810160405290816000820160009054906101000a900460ff166001811115611bf257fe5b6001811115611bfd57fe5b8152602001600182015481526020016002820160009054906101000a900473ffffffffffffffffffffffffffffffffffffffff1673ffffffffffffffffffffffffffffffffffffffff1673ffffffffffffffffffffffffffffffffffffffff168152602001600382015481526020016004820154815260200160058201548152602001600682015481525050905033816040019073ffffffffffffffffffffffffffffffffffffffff16908173ffffffffffffffffffffffffffffffffffffffff16815250506025819080600181540180825580915050906001820390600052602060002090600702016000909192909190915060008201518160000160006101000a81548160ff02191690836001811115611d1557fe5b02179055506020820151816001015560408201518160020160006101000a81548173ffffffffffffffffffffffffffffffffffffffff021916908373ffffffffffffffffffffffffffffffffffffffff160217905550606082015181600301556080820151816004015560a0820151816005015560c08201518160060155505050601460003373ffffffffffffffffffffffffffffffffffffffff1673ffffffffffffffffffffffffffffffffffffffff168152602001908152602001600020600081548092919060010191905055507ff236a93ac41749485be81eb5fa0a7db4df06ef36a9cc03c967d1f6dad9dba4b060405160405180910390a150565b611e1c613481565b601260003373ffffffffffffffffffffffffffffffffffffffff1673ffffffffffffffffffffffffffffffffffffffff16815260200190815260200160002060009054906101000a900460ff16151515611e7557600080fd5b601680549050600554111515611e8a57600080fd5b60148383905011151515611e9d57600080fd5b604080519081016040528084848080601f01602080910402602001604051908101604052809392919081815260200183838082843782019150505050505081526020016000815250905080601060003373ffffffffffffffffffffffffffffffffffffffff1673ffffffffffffffffffffffffffffffffffffffff1681526020019081526020016000206000820151816000019080519060200190611f43929190613401565b5060208201518160010155905050600160163390806001815401808255809150509060018203906000526020600020016000909192909190916101000a81548173ffffffffffffffffffffffffffffffffffffffff021916908373ffffffffffffffffffffffffffffffffffffffff16021790555003601160003373ffffffffffffffffffffffffffffffffffffffff1673ffffffffffffffffffffffffffffffffffffffff168152602001908152602001600020819055506001601260003373ffffffffffffffffffffffffffffffffffffffff1673ffffffffffffffffffffffffffffffffffffffff16815260200190815260200160002060006101000a81548160ff0219169083151502179055507faa33dec2818ffe2ebce2b9856b66604f4cb2f8b1cab69e14b3e7d93ec90887cf60405160405180910390a1505050565b600080601580549050600454915091509091565b600060019054906101000a900473ffffffffffffffffffffffffffffffffffffffff1673ffffffffffffffffffffffffffffffffffffffff163373ffffffffffffffffffffffffffffffffffffffff161415156120f557600080fd5b80601260008273ffffffffffffffffffffffffffffffffffffffff1673ffffffffffffffffffffffffffffffffffffffff16815260200190815260200160002060009054906101000a900460ff16151561214e57600080fd5b61215782613021565b505050565b600060019054906101000a900473ffffffffffffffffffffffffffffffffffffffff1673ffffffffffffffffffffffffffffffffffffffff163373ffffffffffffffffffffffffffffffffffffffff161415156121b857600080fd5b60008060006101000a81548160ff021916908315150217905550565b60008060008060006121e4613388565b6017876002811015156121f357fe5b6007020160e060405190810160405290816000820160009054906101000a900460ff16600181111561222157fe5b600181111561222c57fe5b8152602001600182015481526020016002820160009054906101000a900473ffffffffffffffffffffffffffffffffffffffff1673ffffffffffffffffffffffffffffffffffffffff1673ffffffffffffffffffffffffffffffffffffffff16815260200160038201548152602001600482015481526020016005820154815260200160068201548152505090508060200151816060015182608001518360a001518460c00151955095509550955095505091939590929450565b60008060019054906101000a900473ffffffffffffffffffffffffffffffffffffffff1673ffffffffffffffffffffffffffffffffffffffff163373ffffffffffffffffffffffffffffffffffffffff1614151561234457600080fd5b6017600160028110151561235457fe5b60070201905081816001018190555061236d6001612e4f565b7fb61c7a90005ce2d07af7a8f94e006cca4ca972cc628406f4c86f9205e3ab303860405160405180910390a15050565b6000600c54905090565b600f60003373ffffffffffffffffffffffffffffffffffffffff1673ffffffffffffffffffffffffffffffffffffffff16815260200190815260200160002060009054906101000a900460ff1615151561240057600080fd5b6000600160009054906101000a900473ffffffffffffffffffffffffffffffffffffffff1673ffffffffffffffffffffffffffffffffffffffff1614151561244757600080fd5b33600160006101000a81548173ffffffffffffffffffffffffffffffffffffffff021916908373ffffffffffffffffffffffffffffffffffffffff160217905550600160009054906101000a900473ffffffffffffffffffffffffffffffffffffffff1673ffffffffffffffffffffffffffffffffffffffff167fe2ea68412b1c74abf741ffc807e10ee138cf8184ec4bbc5cfa2ece494df9f73d60405160405180910390a2565b600080600080600080600080600061251760158054905060045461336f90919063ffffffff16565b925061253360168054905060055461336f90919063ffffffff16565b91503073ffffffffffffffffffffffffffffffffffffffff163190508281600b5484600654600754985098509850985098509850505050909192939495565b600061257d82613282565b9050919050565b6000809054906101000a900460ff1615151561259f57600080fd5b60006007541115156125b057600080fd5b6125ba6001613282565b341415156125c757600080fd5b6025601760016002811015156125d957fe5b60070201908060018154018082558091505090600182039060005260206000209060070201600090919290919091506000820160009054906101000a900460ff168160000160006101000a81548160ff0219169083600181111561263957fe5b0217905550600182015481600101556002820160009054906101000a900473ffffffffffffffffffffffffffffffffffffffff168160020160006101000a81548173ffffffffffffffffffffffffffffffffffffffff021916908373ffffffffffffffffffffffffffffffffffffffff160217905550600382015481600301556004820154816004015560058201548160050155600682015481600601555050507ff236a93ac41749485be81eb5fa0a7db4df06ef36a9cc03c967d1f6dad9dba4b060405160405180910390a1565b60008060006026546025805490500390508060265492509250509091565b6000600160009054906101000a900473ffffffffffffffffffffffffffffffffffffffff16905090565b606060008060008060006002600354600060019054906101000a900473ffffffffffffffffffffffffffffffffffffffff16600160009054906101000a900473ffffffffffffffffffffffffffffffffffffffff16600454600554858054600181600116156101000203166002900480601f0160208091040260200160405190810160405280929190818152602001828054600181600116156101000203166002900480156128405780601f1061281557610100808354040283529160200191612840565b820191906000526020600020905b81548152906001019060200180831161282357829003601f168201915b50505050509550955095509550955095509550909192939495565b60606000806128686133e7565b612870613481565b612878613481565b600f60008873ffffffffffffffffffffffffffffffffffffffff1673ffffffffffffffffffffffffffffffffffffffff16815260200190815260200160002060009054906101000a900460ff16156129df57600d60008873ffffffffffffffffffffffffffffffffffffffff1673ffffffffffffffffffffffffffffffffffffffff168152602001908152602001600020604080519081016040529081600082018054600181600116156101000203166002900480601f0160208091040260200160405190810160405280929190818152602001828054600181600116156101000203166002900480156129ad5780601f10612982576101008083540402835291602001916129ad565b820191906000526020600020905b81548152906001019060200180831161299057829003601f168201915b505050505081526020016001820154815250509250826000015183602001516001829250809050955095509550612d71565b601260008873ffffffffffffffffffffffffffffffffffffffff1673ffffffffffffffffffffffffffffffffffffffff16815260200190815260200160002060009054906101000a900460ff1615612b4657601060008873ffffffffffffffffffffffffffffffffffffffff1673ffffffffffffffffffffffffffffffffffffffff168152602001908152602001600020604080519081016040529081600082018054600181600116156101000203166002900480601f016020809104026020016040519081016040528092919081815260200182805460018160011615610100020316600290048015612b145780601f10612ae957610100808354040283529160200191612b14565b820191906000526020600020905b815481529060010190602001808311612af757829003601f168201915b505050505081526020016001820154815250509150816000015182602001516002829250809050955095509550612d71565b600160009054906101000a900473ffffffffffffffffffffffffffffffffffffffff1673ffffffffffffffffffffffffffffffffffffffff168773ffffffffffffffffffffffffffffffffffffffff161415612be757600c5460036040805190810160405280600a81526020017f676f7665726e6d656e74000000000000000000000000000000000000000000008152509190809050955095509550612d71565b601360008873ffffffffffffffffffffffffffffffffffffffff1673ffffffffffffffffffffffffffffffffffffffff16815260200190815260200160002060009054906101000a900460ff1615612d4e57601060008873ffffffffffffffffffffffffffffffffffffffff1673ffffffffffffffffffffffffffffffffffffffff168152602001908152602001600020604080519081016040529081600082018054600181600116156101000203166002900480601f016020809104026020016040519081016040528092919081815260200182805460018160011615610100020316600290048015612d1c5780601f10612cf157610100808354040283529160200191612d1c565b820191906000526020600020905b815481529060010190602001808311612cff57829003601f168201915b505050505081526020016001820154815250509050806000015181602001516004829250809050955095509550612d71565b600080602060405190810160405280600081525091908191508090509550955095505b5050509193909250565b600160009054906101000a900473ffffffffffffffffffffffffffffffffffffffff1673ffffffffffffffffffffffffffffffffffffffff163373ffffffffffffffffffffffffffffffffffffffff16141515612dd757600080fd5b60008110158015612de85750606481105b15612e4c5780600881905550612dfe6000612e4f565b612e086001612e4f565b3373ffffffffffffffffffffffffffffffffffffffff167ff5c78b4fba5c9dd9f3766d019ec37498d112c1bb4add75440e1a217dbcecc8d060405160405180910390a25b50565b6000601782600281101515612e6057fe5b600702019050612e926064612e846008548460010154612fd090919063ffffffff16565b612fb590919063ffffffff16565b8160030181905550612edc6064612ece600954612ec08560030154866001015461336f90919063ffffffff16565b612fd090919063ffffffff16565b612fb590919063ffffffff16565b8160040181905550612f3c6064612f2e600a54612f208560040154612f128760030154886001015461336f90919063ffffffff16565b61336f90919063ffffffff16565b612fd090919063ffffffff16565b612fb590919063ffffffff16565b8160050181905550612f8b8160050154612f7d8360040154612f6f8560030154866001015461336f90919063ffffffff16565b61336f90919063ffffffff16565b61336f90919063ffffffff16565b81600601819055505050565b6000808284019050838110151515612fab57fe5b8091505092915050565b6000808284811515612fc357fe5b0490508091505092915050565b60008082840290506000841480612ff15750828482811515612fee57fe5b04145b1515612ff957fe5b8091505092915050565b600061301c600454600354612fb590919063ffffffff16565b905090565b6000806000601160008573ffffffffffffffffffffffffffffffffffffffff1673ffffffffffffffffffffffffffffffffffffffff16815260200190815260200160002054915060026016805490501180613083575060016016805490500382105b1561316957601660016016805490500381548110151561309f57fe5b9060005260206000200160009054906101000a900473ffffffffffffffffffffffffffffffffffffffff169050806016838154811015156130dc57fe5b9060005260206000200160006101000a81548173ffffffffffffffffffffffffffffffffffffffff021916908373ffffffffffffffffffffffffffffffffffffffff16021790555081601160008373ffffffffffffffffffffffffffffffffffffffff1673ffffffffffffffffffffffffffffffffffffffff168152602001908152602001600020819055505b601660016016805490500381548110151561318057fe5b9060005260206000200160006101000a81549073ffffffffffffffffffffffffffffffffffffffff021916905560168054809190600190036131c2919061349b565b506000601260008673ffffffffffffffffffffffffffffffffffffffff1673ffffffffffffffffffffffffffffffffffffffff16815260200190815260200160002060006101000a81548160ff0219169083151502179055506001601360008673ffffffffffffffffffffffffffffffffffffffff1673ffffffffffffffffffffffffffffffffffffffff16815260200190815260200160002060006101000a81548160ff02191690831515021790555060168054905092505050919050565b600061328c613388565b60178360028110151561329b57fe5b6007020160e060405190810160405290816000820160009054906101000a900460ff1660018111156132c957fe5b60018111156132d457fe5b8152602001600182015481526020016002820160009054906101000a900473ffffffffffffffffffffffffffffffffffffffff1673ffffffffffffffffffffffffffffffffffffffff1673ffffffffffffffffffffffffffffffffffffffff16815260200160038201548152602001600482015481526020016005820154815260200160068201548152505090508060200151915050919050565b600082821115151561337d57fe5b818303905092915050565b60e060405190810160405280600060018111156133a157fe5b815260200160008152602001600073ffffffffffffffffffffffffffffffffffffffff168152602001600081526020016000815260200160008152602001600081525090565b604080519081016040528060608152602001600081525090565b828054600181600116156101000203166002900490600052602060002090601f016020900481019282601f1061344257805160ff1916838001178555613470565b82800160010185558215613470579182015b8281111561346f578251825591602001919060010190613454565b5b50905061347d91906134c7565b5090565b604080519081016040528060608152602001600081525090565b8154818355818111156134c2578183600052602060002091820191016134c191906134c7565b5b505050565b6134e991905b808211156134e55760008160009055506001016134cd565b5090565b905600a165627a7a72305820105481cce864e6ab7ad46aac943bf50c25409fcf06341330d3a89d67bf10888d0029",
  "source": "pragma solidity ^0.4.24;\r\n\r\nimport \"./Employees.sol\";\r\n\r\n/** @title Customers describes specific functions of a customer of the Bar.\r\nUsers of this smartcontract are by default customers. */\r\ncontract Customers is Employees {\r\n\r\n  event BuyOrderEvent ();\r\n\r\n  /** @dev buy a pint of beer */\r\n  function orderBeer() public payable authorized hasBeerInStock {\r\n      require(msg.value == _getPrice(0));\r\n      Beverage memory _newOrder = beverages[0];\r\n      _newOrder.customer = msg.sender;\r\n      ordersList.push(_newOrder);\r\n      customerPendingOrders[msg.sender]++;\r\n      emit BuyOrderEvent();\r\n  }\r\n\r\n  /** @dev buy a glass of wine */\r\n  function orderWine() public payable authorized hasWineInStock {\r\n      require(msg.value == _getPrice(1));\r\n      ordersList.push(beverages[1]);\r\n      emit BuyOrderEvent();\r\n  }\r\n\r\n  /** @return the number of customers waiting to be served. */\r\n  function getNbPendingOrders(address customer) external view returns(uint) {\r\n      return customerPendingOrders[customer];\r\n  }\r\n\r\n  /* for testing purpose of the internal function*/\r\n  function getPrice(uint _productId) public view returns(uint){\r\n      return _getPrice(_productId);\r\n  }\r\n}\r\n",
  "sourcePath": "C:\\Users\\Jacques\\SOLIDITY-PROJECTS\\finalproject2\\contracts\\Customers.sol",
  "compiler": {
    "name": "solc",
    "version": "0.4.24+commit.e67f0147.Emscripten.clang"
  },
  "schemaVersion": "2.0.0",
  "updatedAt": "2018-08-27T00:13:51.226Z"
}