{
  "contractName": "Employees",
  "abi": [
    {
      "constant": false,
      "inputs": [],
      "name": "stopContract",
      "outputs": [],
      "payable": false,
      "stateMutability": "nonpayable",
      "type": "function"
    },
    {
      "constant": false,
      "inputs": [
        {
          "name": "_salaryRatio",
          "type": "uint256"
        }
      ],
      "name": "setSalaryRatio",
      "outputs": [],
      "payable": false,
      "stateMutability": "nonpayable",
      "type": "function"
    },
    {
      "constant": true,
      "inputs": [],
      "name": "getAvailableJobs",
      "outputs": [
        {
          "name": "",
          "type": "uint256"
        }
      ],
      "payable": false,
      "stateMutability": "view",
      "type": "function"
    },
    {
      "constant": true,
      "inputs": [],
      "name": "getEconomicVariables",
      "outputs": [
        {
          "name": "",
          "type": "uint256"
        },
        {
          "name": "",
          "type": "uint256"
        },
        {
          "name": "",
          "type": "uint256"
        },
        {
          "name": "",
          "type": "uint256"
        },
        {
          "name": "",
          "type": "uint256"
        }
      ],
      "payable": false,
      "stateMutability": "view",
      "type": "function"
    },
    {
      "constant": false,
      "inputs": [],
      "name": "withdraw",
      "outputs": [],
      "payable": false,
      "stateMutability": "nonpayable",
      "type": "function"
    },
    {
      "constant": false,
      "inputs": [
        {
          "name": "_priceInWei",
          "type": "uint256"
        }
      ],
      "name": "setBeerPrice",
      "outputs": [],
      "payable": false,
      "stateMutability": "nonpayable",
      "type": "function"
    },
    {
      "constant": true,
      "inputs": [],
      "name": "wineStock",
      "outputs": [
        {
          "name": "",
          "type": "uint256"
        }
      ],
      "payable": false,
      "stateMutability": "view",
      "type": "function"
    },
    {
      "constant": true,
      "inputs": [],
      "name": "getSharePrice",
      "outputs": [
        {
          "name": "",
          "type": "uint256"
        }
      ],
      "payable": false,
      "stateMutability": "view",
      "type": "function"
    },
    {
      "constant": true,
      "inputs": [],
      "name": "getTaxRatio",
      "outputs": [
        {
          "name": "",
          "type": "uint256"
        }
      ],
      "payable": false,
      "stateMutability": "view",
      "type": "function"
    },
    {
      "constant": false,
      "inputs": [
        {
          "name": "_dividendRatio",
          "type": "uint256"
        }
      ],
      "name": "setDividendRatio",
      "outputs": [],
      "payable": false,
      "stateMutability": "nonpayable",
      "type": "function"
    },
    {
      "constant": true,
      "inputs": [],
      "name": "getContractBalance",
      "outputs": [
        {
          "name": "",
          "type": "uint256"
        }
      ],
      "payable": false,
      "stateMutability": "view",
      "type": "function"
    },
    {
      "constant": true,
      "inputs": [],
      "name": "beerStock",
      "outputs": [
        {
          "name": "",
          "type": "uint256"
        }
      ],
      "payable": false,
      "stateMutability": "view",
      "type": "function"
    },
    {
      "constant": true,
      "inputs": [],
      "name": "getEmployeesListNumbers",
      "outputs": [
        {
          "name": "",
          "type": "uint256"
        },
        {
          "name": "",
          "type": "uint256"
        }
      ],
      "payable": false,
      "stateMutability": "view",
      "type": "function"
    },
    {
      "constant": true,
      "inputs": [],
      "name": "getTreasuryBalance",
      "outputs": [
        {
          "name": "",
          "type": "uint256"
        }
      ],
      "payable": false,
      "stateMutability": "view",
      "type": "function"
    },
    {
      "constant": false,
      "inputs": [
        {
          "name": "_name",
          "type": "string"
        }
      ],
      "name": "beOwner",
      "outputs": [],
      "payable": true,
      "stateMutability": "payable",
      "type": "function"
    },
    {
      "constant": true,
      "inputs": [],
      "name": "getOwnerListNumbers",
      "outputs": [
        {
          "name": "",
          "type": "uint256"
        },
        {
          "name": "",
          "type": "uint256"
        }
      ],
      "payable": false,
      "stateMutability": "view",
      "type": "function"
    },
    {
      "constant": false,
      "inputs": [],
      "name": "resumeContract",
      "outputs": [],
      "payable": false,
      "stateMutability": "nonpayable",
      "type": "function"
    },
    {
      "constant": true,
      "inputs": [
        {
          "name": "_id",
          "type": "uint256"
        }
      ],
      "name": "getRevenueDistribution",
      "outputs": [
        {
          "name": "",
          "type": "uint256"
        },
        {
          "name": "",
          "type": "uint256"
        },
        {
          "name": "",
          "type": "uint256"
        },
        {
          "name": "",
          "type": "uint256"
        },
        {
          "name": "",
          "type": "uint256"
        }
      ],
      "payable": false,
      "stateMutability": "view",
      "type": "function"
    },
    {
      "constant": false,
      "inputs": [
        {
          "name": "_priceInWei",
          "type": "uint256"
        }
      ],
      "name": "setWinePrice",
      "outputs": [],
      "payable": false,
      "stateMutability": "nonpayable",
      "type": "function"
    },
    {
      "constant": true,
      "inputs": [],
      "name": "getGovBalance",
      "outputs": [
        {
          "name": "",
          "type": "uint256"
        }
      ],
      "payable": false,
      "stateMutability": "view",
      "type": "function"
    },
    {
      "constant": false,
      "inputs": [],
      "name": "beGovernment",
      "outputs": [],
      "payable": false,
      "stateMutability": "nonpayable",
      "type": "function"
    },
    {
      "constant": true,
      "inputs": [],
      "name": "getBarVariables",
      "outputs": [
        {
          "name": "",
          "type": "uint256"
        },
        {
          "name": "",
          "type": "uint256"
        },
        {
          "name": "",
          "type": "uint256"
        },
        {
          "name": "",
          "type": "uint256"
        },
        {
          "name": "",
          "type": "uint256"
        },
        {
          "name": "",
          "type": "uint256"
        }
      ],
      "payable": false,
      "stateMutability": "view",
      "type": "function"
    },
    {
      "constant": true,
      "inputs": [],
      "name": "getGovAddress",
      "outputs": [
        {
          "name": "",
          "type": "address"
        }
      ],
      "payable": false,
      "stateMutability": "view",
      "type": "function"
    },
    {
      "constant": true,
      "inputs": [],
      "name": "getBarFixData",
      "outputs": [
        {
          "name": "",
          "type": "string"
        },
        {
          "name": "",
          "type": "uint256"
        },
        {
          "name": "",
          "type": "address"
        },
        {
          "name": "",
          "type": "address"
        },
        {
          "name": "",
          "type": "uint256"
        },
        {
          "name": "",
          "type": "uint256"
        }
      ],
      "payable": false,
      "stateMutability": "view",
      "type": "function"
    },
    {
      "constant": true,
      "inputs": [
        {
          "name": "_address",
          "type": "address"
        }
      ],
      "name": "getUserAccount",
      "outputs": [
        {
          "name": "",
          "type": "string"
        },
        {
          "name": "",
          "type": "uint256"
        },
        {
          "name": "",
          "type": "uint256"
        }
      ],
      "payable": false,
      "stateMutability": "view",
      "type": "function"
    },
    {
      "constant": false,
      "inputs": [
        {
          "name": "_taxRatio",
          "type": "uint256"
        }
      ],
      "name": "setTaxRatio",
      "outputs": [],
      "payable": false,
      "stateMutability": "nonpayable",
      "type": "function"
    },
    {
      "payable": true,
      "stateMutability": "payable",
      "type": "fallback"
    },
    {
      "anonymous": false,
      "inputs": [],
      "name": "EmployeeEvent",
      "type": "event"
    },
    {
      "anonymous": false,
      "inputs": [
        {
          "indexed": true,
          "name": "_govAddress",
          "type": "address"
        }
      ],
      "name": "GovEvent",
      "type": "event"
    },
    {
      "anonymous": false,
      "inputs": [
        {
          "indexed": true,
          "name": "_ownerAddress",
          "type": "address"
        }
      ],
      "name": "OwnerEvent",
      "type": "event"
    },
    {
      "anonymous": false,
      "inputs": [
        {
          "indexed": true,
          "name": "_govAddress",
          "type": "address"
        }
      ],
      "name": "TaxRatioEvent",
      "type": "event"
    },
    {
      "anonymous": false,
      "inputs": [],
      "name": "BeerPriceEvent",
      "type": "event"
    },
    {
      "anonymous": false,
      "inputs": [],
      "name": "WinePriceEvent",
      "type": "event"
    },
    {
      "anonymous": false,
      "inputs": [],
      "name": "SalaryRatioEvent",
      "type": "event"
    },
    {
      "anonymous": false,
      "inputs": [],
      "name": "DividendRatioEvent",
      "type": "event"
    },
    {
      "anonymous": false,
      "inputs": [],
      "name": "WithdrawEvent",
      "type": "event"
    },
    {
      "constant": false,
      "inputs": [
        {
          "name": "_name",
          "type": "string"
        }
      ],
      "name": "beEmployee",
      "outputs": [],
      "payable": false,
      "stateMutability": "nonpayable",
      "type": "function"
    },
    {
      "constant": true,
      "inputs": [],
      "name": "getOrdersData",
      "outputs": [
        {
          "name": "",
          "type": "uint256"
        },
        {
          "name": "",
          "type": "uint256"
        }
      ],
      "payable": false,
      "stateMutability": "view",
      "type": "function"
    },
    {
      "constant": false,
      "inputs": [],
      "name": "serveCustomer",
      "outputs": [],
      "payable": false,
      "stateMutability": "nonpayable",
      "type": "function"
    },
    {
      "constant": false,
      "inputs": [],
      "name": "quitJob",
      "outputs": [],
      "payable": false,
      "stateMutability": "nonpayable",
      "type": "function"
    },
    {
      "constant": false,
      "inputs": [
        {
          "name": "_employee",
          "type": "address"
        }
      ],
      "name": "fireEmployee",
      "outputs": [],
      "payable": false,
      "stateMutability": "nonpayable",
      "type": "function"
    }
  ],
  "bytecode": "0x608060405260008060006101000a81548160ff0219169083151502179055506000600160006101000a81548173ffffffffffffffffffffffffffffffffffffffff021916908373ffffffffffffffffffffffffffffffffffffffff16021790555060006026556200006f620007f0565b33600060016101000a81548173ffffffffffffffffffffffffffffffffffffffff021916908373ffffffffffffffffffffffffffffffffffffffff1602179055506040805190810160405280600e81526020017f4841524420464f524b204341464500000000000000000000000000000000000081525060029080519060200190620000fd9291906200080a565b50681b1ae4d6e2ef5000006003819055506064600481905550600a60058190555061019060068190555060fa6007819055506021600881905550600a6009819055506028600a8190555060408051908101604052806040805190810160405280600f81526020017f424f4220544845204d414e41474552000000000000000000000000000000000081525081526020016000815250905080600d60003373ffffffffffffffffffffffffffffffffffffffff1673ffffffffffffffffffffffffffffffffffffffff1681526020019081526020016000206000820151816000019080519060200190620001f292919062000891565b5060208201518160010155905050600160153390806001815401808255809150509060018203906000526020600020016000909192909190916101000a81548173ffffffffffffffffffffffffffffffffffffffff021916908373ffffffffffffffffffffffffffffffffffffffff16021790555003600e60003373ffffffffffffffffffffffffffffffffffffffff1673ffffffffffffffffffffffffffffffffffffffff168152602001908152602001600020819055506001600f60003373ffffffffffffffffffffffffffffffffffffffff1673ffffffffffffffffffffffffffffffffffffffff16815260200190815260200160002060006101000a81548160ff02191690831515021790555060e060405190810160405280600060018111156200031d57fe5b8152602001665575e121efee698152602001600073ffffffffffffffffffffffffffffffffffffffff1681526020016000815260200160008152602001600081526020016000815250601760006002811015156200037757fe5b6007020160008201518160000160006101000a81548160ff02191690836001811115620003a057fe5b02179055506020820151816001015560408201518160020160006101000a81548173ffffffffffffffffffffffffffffffffffffffff021916908373ffffffffffffffffffffffffffffffffffffffff160217905550606082015181600301556080820151816004015560a0820151816005015560c0820151816006015590505060e0604051908101604052806001808111156200043a57fe5b8152602001663d0b0e85f485b88152602001600073ffffffffffffffffffffffffffffffffffffffff1681526020016000815260200160008152602001600081526020016000815250601760016002811015156200049457fe5b6007020160008201518160000160006101000a81548160ff02191690836001811115620004bd57fe5b02179055506020820151816001015560408201518160020160006101000a81548173ffffffffffffffffffffffffffffffffffffffff021916908373ffffffffffffffffffffffffffffffffffffffff160217905550606082015181600301556080820151816004015560a0820151816005015560c082015181600601559050506200055960006200057b640100000000026401000000009004565b6200057460016200057b640100000000026401000000009004565b5062000940565b60006017826002811015156200058d57fe5b600702019050620005df6064620005c26008548460010154620007846401000000000262002a6e179091906401000000009004565b620007ba6401000000000262002a53179091906401000000009004565b81600301819055506200065960646200063c6009546200061f85600301548660010154620007d66401000000000262002d20179091906401000000009004565b620007846401000000000262002a6e179091906401000000009004565b620007ba6401000000000262002a53179091906401000000009004565b8160040181905550620006f96064620006dc600a54620006bf8560040154620006a287600301548860010154620007d66401000000000262002d20179091906401000000009004565b620007d66401000000000262002d20179091906401000000009004565b620007846401000000000262002a6e179091906401000000009004565b620007ba6401000000000262002a53179091906401000000009004565b81600501819055506200077881600501546200075b83600401546200073e85600301548660010154620007d66401000000000262002d20179091906401000000009004565b620007d66401000000000262002d20179091906401000000009004565b620007d66401000000000262002d20179091906401000000009004565b81600601819055505050565b60008082840290506000841480620007a75750828482811515620007a457fe5b04145b1515620007b057fe5b8091505092915050565b6000808284811515620007c957fe5b0490508091505092915050565b6000828211151515620007e557fe5b818303905092915050565b604080519081016040528060608152602001600081525090565b828054600181600116156101000203166002900490600052602060002090601f016020900481019282601f106200084d57805160ff19168380011785556200087e565b828001600101855582156200087e579182015b828111156200087d57825182559160200191906001019062000860565b5b5090506200088d919062000918565b5090565b828054600181600116156101000203166002900490600052602060002090601f016020900481019282601f10620008d457805160ff191683800117855562000905565b8280016001018555821562000905579182015b8281111562000904578251825591602001919060010190620008e7565b5b50905062000914919062000918565b5090565b6200093d91905b80821115620009395760008160009055506001016200091f565b5090565b90565b612ec980620009506000396000f30060806040526004361061018b576000357c0100000000000000000000000000000000000000000000000000000000900463ffffffff16806312253a6c146101a85780631a478b94146101bf5780631aa15bbe146101ec5780631f731c5d146102175780633ccfd60b1461025e5780634c2e589d146102755780634e332317146102a257806352b55c10146102cd5780635b1dac60146102e45780635ef32e2c1461030f57806360f469351461033a5780636f9fb98a146103675780638e29e0271461039257806399866b6d146103bd5780639b5655dc146103ef5780639cabe06e1461041a578063ace423ca14610448578063b4b4e5561461045f578063b55c56c11461049a578063b79b9516146104cc578063c4bc5da51461050f578063c655af3c14610526578063d0057fd914610583578063d3cd0dc9146105b0578063db41002b146105db578063e16e7d0b146105f2578063e9b1149b14610640578063ef4a63b814610672578063fa33545c146106c9578063fb47e016146107d4578063fe303ebf1461089e575b6000809054906101000a900460ff161515156101a657600080fd5b005b3480156101b457600080fd5b506101bd6108cb565b005b3480156101cb57600080fd5b506101ea60048036038101908080359060200190929190505050610943565b005b3480156101f857600080fd5b50610201610a00565b6040518082815260200191505060405180910390f35b34801561022357600080fd5b5061022c610a11565b604051808681526020018581526020018481526020018381526020018281526020019550505050505060405180910390f35b34801561026a57600080fd5b50610273610a6e565b005b34801561028157600080fd5b506102a060048036038101908080359060200190929190505050611023565b005b3480156102ae57600080fd5b506102b76110d9565b6040518082815260200191505060405180910390f35b3480156102d957600080fd5b506102e26110df565b005b3480156102f057600080fd5b506102f9611566565b6040518082815260200191505060405180910390f35b34801561031b57600080fd5b50610324611575565b6040518082815260200191505060405180910390f35b34801561034657600080fd5b506103656004803603810190808035906020019092919050505061157f565b005b34801561037357600080fd5b5061037c61163c565b6040518082815260200191505060405180910390f35b34801561039e57600080fd5b506103a761165b565b6040518082815260200191505060405180910390f35b3480156103c957600080fd5b506103d2611661565b604051808381526020018281526020019250505060405180910390f35b3480156103fb57600080fd5b50610404611675565b6040518082815260200191505060405180910390f35b61044660048036038101908080359060200190820180359060200191909192939192939050505061167f565b005b34801561045457600080fd5b5061045d6119e4565b005b34801561046b57600080fd5b50610498600480360381019080803590602001908201803590602001919091929391929390505050611a48565b005b3480156104a657600080fd5b506104af611cb9565b604051808381526020018281526020019250505060405180910390f35b3480156104d857600080fd5b5061050d600480360381019080803573ffffffffffffffffffffffffffffffffffffffff169060200190929190505050611ccd565b005b34801561051b57600080fd5b50610524611d90565b005b34801561053257600080fd5b5061055160048036038101908080359060200190929190505050611e08565b604051808681526020018581526020018481526020018381526020018281526020019550505050505060405180910390f35b34801561058f57600080fd5b506105ae60048036038101908080359060200190929190505050611f1b565b005b3480156105bc57600080fd5b506105c5611fd1565b6040518082815260200191505060405180910390f35b3480156105e757600080fd5b506105f0611fdb565b005b3480156105fe57600080fd5b50610607612123565b60405180878152602001868152602001858152602001848152602001838152602001828152602001965050505050505060405180910390f35b34801561064c57600080fd5b506106556121a6565b604051808381526020018281526020019250505060405180910390f35b34801561067e57600080fd5b506106876121c4565b604051808273ffffffffffffffffffffffffffffffffffffffff1673ffffffffffffffffffffffffffffffffffffffff16815260200191505060405180910390f35b3480156106d557600080fd5b506106de6121ee565b60405180806020018781526020018673ffffffffffffffffffffffffffffffffffffffff1673ffffffffffffffffffffffffffffffffffffffff1681526020018573ffffffffffffffffffffffffffffffffffffffff1673ffffffffffffffffffffffffffffffffffffffff168152602001848152602001838152602001828103825288818151815260200191508051906020019080838360005b83811015610794578082015181840152602081019050610779565b50505050905090810190601f1680156107c15780820380516001836020036101000a031916815260200191505b5097505050505050505060405180910390f35b3480156107e057600080fd5b50610815600480360381019080803573ffffffffffffffffffffffffffffffffffffffff1690602001909291905050506122f9565b6040518080602001848152602001838152602001828103825285818151815260200191508051906020019080838360005b83811015610861578082015181840152602081019050610846565b50505050905090810190601f16801561088e5780820380516001836020036101000a031916815260200191505b5094505050505060405180910390f35b3480156108aa57600080fd5b506108c960048036038101908080359060200190929190505050612819565b005b600060019054906101000a900473ffffffffffffffffffffffffffffffffffffffff1673ffffffffffffffffffffffffffffffffffffffff163373ffffffffffffffffffffffffffffffffffffffff1614151561092757600080fd5b60016000806101000a81548160ff021916908315150217905550565b600060019054906101000a900473ffffffffffffffffffffffffffffffffffffffff1673ffffffffffffffffffffffffffffffffffffffff163373ffffffffffffffffffffffffffffffffffffffff1614151561099f57600080fd5b600081101580156109b05750606481105b156109fd57806009819055506109c660006128ed565b6109d060016128ed565b7f45f3a23c7e881769d4c9588f5bc54d911aaa242e98f6998be38c3703842c863560405160405180910390a15b50565b600060168054905060055403905090565b600080600080600080600060176000600281101515610a2c57fe5b6007020160010154915060176001600281101515610a4657fe5b600702016001015490508181600954600a546008549650965096509650965050509091929394565b600080600080600060019054906101000a900473ffffffffffffffffffffffffffffffffffffffff1673ffffffffffffffffffffffffffffffffffffffff163373ffffffffffffffffffffffffffffffffffffffff161480610b1d5750600160009054906101000a900473ffffffffffffffffffffffffffffffffffffffff1673ffffffffffffffffffffffffffffffffffffffff163373ffffffffffffffffffffffffffffffffffffffff16145b80610b715750600f60003373ffffffffffffffffffffffffffffffffffffffff1673ffffffffffffffffffffffffffffffffffffffff16815260200190815260200160002060009054906101000a900460ff165b80610bc55750601260003373ffffffffffffffffffffffffffffffffffffffff1673ffffffffffffffffffffffffffffffffffffffff16815260200190815260200160002060009054906101000a900460ff165b1515610bd057600080fd5b6000809054906101000a900460ff16151515610beb57600080fd5b3073ffffffffffffffffffffffffffffffffffffffff16319250600160009054906101000a900473ffffffffffffffffffffffffffffffffffffffff1673ffffffffffffffffffffffffffffffffffffffff163373ffffffffffffffffffffffffffffffffffffffff161415610cd157600c5493506000600c819055503373ffffffffffffffffffffffffffffffffffffffff166108fc859081150290604051600060405180830381858888f193505050501515610ca857600080fd5b8383033073ffffffffffffffffffffffffffffffffffffffff1631141515610ccc57fe5b610ff1565b600060019054906101000a900473ffffffffffffffffffffffffffffffffffffffff1673ffffffffffffffffffffffffffffffffffffffff163373ffffffffffffffffffffffffffffffffffffffff161480610d765750600f60003373ffffffffffffffffffffffffffffffffffffffff1673ffffffffffffffffffffffffffffffffffffffff16815260200190815260200160002060009054906101000a900460ff165b15610e3657600d60003373ffffffffffffffffffffffffffffffffffffffff1673ffffffffffffffffffffffffffffffffffffffff168152602001908152602001600020915081600101549350600082600101819055503373ffffffffffffffffffffffffffffffffffffffff166108fc859081150290604051600060405180830381858888f193505050501515610e0d57600080fd5b8383033073ffffffffffffffffffffffffffffffffffffffff1631141515610e3157fe5b610ff0565b601260003373ffffffffffffffffffffffffffffffffffffffff1673ffffffffffffffffffffffffffffffffffffffff16815260200190815260200160002060009054906101000a900460ff1680610ed75750601360003373ffffffffffffffffffffffffffffffffffffffff1673ffffffffffffffffffffffffffffffffffffffff16815260200190815260200160002060009054906101000a900460ff165b15610fef57601060003373ffffffffffffffffffffffffffffffffffffffff1673ffffffffffffffffffffffffffffffffffffffff168152602001908152602001600020905080600101549350600081600101819055506000601360003373ffffffffffffffffffffffffffffffffffffffff1673ffffffffffffffffffffffffffffffffffffffff16815260200190815260200160002060006101000a81548160ff0219169083151502179055503373ffffffffffffffffffffffffffffffffffffffff166108fc82600101549081150290604051600060405180830381858888f193505050501515610fca57600080fd5b8383033073ffffffffffffffffffffffffffffffffffffffff1631141515610fee57fe5b5b5b5b7fedf4c498a33515202a60039146725349bac735e8e1de60466b9ac800302cbae160405160405180910390a150505050565b60008060019054906101000a900473ffffffffffffffffffffffffffffffffffffffff1673ffffffffffffffffffffffffffffffffffffffff163373ffffffffffffffffffffffffffffffffffffffff1614151561108057600080fd5b6017600060028110151561109057fe5b6007020190508181600101819055506110a960006128ed565b7facc7b9eaf1ff3bee21db509289180435b1fdd8f49212c96e318c1f87fa9420ba60405160405180910390a15050565b60075481565b6110e7612d39565b60008060008060008060008060009054906101000a900460ff1615151561110d57600080fd5b601260003373ffffffffffffffffffffffffffffffffffffffff1673ffffffffffffffffffffffffffffffffffffffff16815260200190815260200160002060009054906101000a900460ff16151561116557600080fd5b60258054905060265410151561117a57600080fd5b60258054905060265410151561118f57600080fd5b60256026548154811015156111a057fe5b906000526020600020906007020160e060405190810160405290816000820160009054906101000a900460ff1660018111156111d857fe5b60018111156111e357fe5b8152602001600182015481526020016002820160009054906101000a900473ffffffffffffffffffffffffffffffffffffffff1673ffffffffffffffffffffffffffffffffffffffff1673ffffffffffffffffffffffffffffffffffffffff16815260200160038201548152602001600482015481526020016005820154815260200160068201548152505097506000600181111561127e57fe5b8860000151600181111561128e57fe5b14156112ac57600660008154809291906001900391905055506112e3565b6001808111156112b857fe5b886000015160018111156112c857fe5b14156112e257600760008154809291906001900391905055505b5b601460008873ffffffffffffffffffffffffffffffffffffffff1673ffffffffffffffffffffffffffffffffffffffff168152602001908152602001600020600081548092919060019003919050555087604001519650601060003373ffffffffffffffffffffffffffffffffffffffff1673ffffffffffffffffffffffffffffffffffffffff168152602001908152602001600020955061139688608001518760010154612a3590919063ffffffff16565b86600101819055506113b78860600151600c54612a3590919063ffffffff16565b600c819055506113d68860c00151600b54612a3590919063ffffffff16565b600b819055508760a00151506113fb6004548960a00151612a5390919063ffffffff16565b9450600d60008060019054906101000a900473ffffffffffffffffffffffffffffffffffffffff1673ffffffffffffffffffffffffffffffffffffffff1673ffffffffffffffffffffffffffffffffffffffff16815260200190815260200160002093506114946114816015805490506004546001010387612a6e90919063ffffffff16565b8560010154612a3590919063ffffffff16565b8460010181905550600192505b60158054905083101561154a576015838154811015156114bd57fe5b9060005260206000200160009054906101000a900473ffffffffffffffffffffffffffffffffffffffff169150600d60008373ffffffffffffffffffffffffffffffffffffffff1673ffffffffffffffffffffffffffffffffffffffff168152602001908152602001600020905084816001016000828254019250508190555082806001019350506114a1565b6026600081548092919060010191905055505050505050505050565b6000611570612aa1565b905090565b6000600854905090565b600060019054906101000a900473ffffffffffffffffffffffffffffffffffffffff1673ffffffffffffffffffffffffffffffffffffffff163373ffffffffffffffffffffffffffffffffffffffff161415156115db57600080fd5b600081101580156115ec5750606481105b156116395780600a8190555061160260006128ed565b61160c60016128ed565b7f31c61375bcb60f9eb97e6962303171d2eb0529486a0dbd519ecbbab89c21270460405160405180910390a15b50565b60003073ffffffffffffffffffffffffffffffffffffffff1631905090565b60065481565b600080601680549050600554915091509091565b6000600b54905090565b611687612d98565b60008060009054906101000a900460ff161515156116a457600080fd5b6004546015805490501015156116b957600080fd5b600f60003373ffffffffffffffffffffffffffffffffffffffff1673ffffffffffffffffffffffffffffffffffffffff16815260200190815260200160002060009054906101000a900460ff1615151561171257600080fd5b61171a612aa1565b3414151561172757600080fd5b6014848490501115151561173a57600080fd5b604080519081016040528085858080601f01602080910402602001604051908101604052809392919081815260200183838082843782019150505050505081526020016000815250915081600d60003373ffffffffffffffffffffffffffffffffffffffff1673ffffffffffffffffffffffffffffffffffffffff16815260200190815260200160002060008201518160000190805190602001906117e0929190612db2565b5060208201518160010155905050600160153390806001815401808255809150509060018203906000526020600020016000909192909190916101000a81548173ffffffffffffffffffffffffffffffffffffffff021916908373ffffffffffffffffffffffffffffffffffffffff16021790555003600e60003373ffffffffffffffffffffffffffffffffffffffff1673ffffffffffffffffffffffffffffffffffffffff168152602001908152602001600020819055506001600f60003373ffffffffffffffffffffffffffffffffffffffff1673ffffffffffffffffffffffffffffffffffffffff16815260200190815260200160002060006101000a81548160ff021916908315150217905550600d60008060019054906101000a900473ffffffffffffffffffffffffffffffffffffffff1673ffffffffffffffffffffffffffffffffffffffff1673ffffffffffffffffffffffffffffffffffffffff168152602001908152602001600020905061197161195e612aa1565b8260010154612a3590919063ffffffff16565b8160010181905550600160009054906101000a900473ffffffffffffffffffffffffffffffffffffffff1673ffffffffffffffffffffffffffffffffffffffff167fd30bb139b3decb2474a8d5025c92d2845a89e67e468c2cf3da2a9bb70c5e7ac460405160405180910390a250505050565b601260003373ffffffffffffffffffffffffffffffffffffffff1673ffffffffffffffffffffffffffffffffffffffff16815260200190815260200160002060009054906101000a900460ff161515611a3c57600080fd5b611a4533612abf565b50565b611a50612e32565b601260003373ffffffffffffffffffffffffffffffffffffffff1673ffffffffffffffffffffffffffffffffffffffff16815260200190815260200160002060009054906101000a900460ff16151515611aa957600080fd5b601680549050600554111515611abe57600080fd5b60148383905011151515611ad157600080fd5b604080519081016040528084848080601f01602080910402602001604051908101604052809392919081815260200183838082843782019150505050505081526020016000815250905080601060003373ffffffffffffffffffffffffffffffffffffffff1673ffffffffffffffffffffffffffffffffffffffff1681526020019081526020016000206000820151816000019080519060200190611b77929190612db2565b5060208201518160010155905050600160163390806001815401808255809150509060018203906000526020600020016000909192909190916101000a81548173ffffffffffffffffffffffffffffffffffffffff021916908373ffffffffffffffffffffffffffffffffffffffff16021790555003601160003373ffffffffffffffffffffffffffffffffffffffff1673ffffffffffffffffffffffffffffffffffffffff168152602001908152602001600020819055506001601260003373ffffffffffffffffffffffffffffffffffffffff1673ffffffffffffffffffffffffffffffffffffffff16815260200190815260200160002060006101000a81548160ff0219169083151502179055507faa33dec2818ffe2ebce2b9856b66604f4cb2f8b1cab69e14b3e7d93ec90887cf60405160405180910390a1505050565b600080601580549050600454915091509091565b600060019054906101000a900473ffffffffffffffffffffffffffffffffffffffff1673ffffffffffffffffffffffffffffffffffffffff163373ffffffffffffffffffffffffffffffffffffffff16141515611d2957600080fd5b80601260008273ffffffffffffffffffffffffffffffffffffffff1673ffffffffffffffffffffffffffffffffffffffff16815260200190815260200160002060009054906101000a900460ff161515611d8257600080fd5b611d8b82612abf565b505050565b600060019054906101000a900473ffffffffffffffffffffffffffffffffffffffff1673ffffffffffffffffffffffffffffffffffffffff163373ffffffffffffffffffffffffffffffffffffffff16141515611dec57600080fd5b60008060006101000a81548160ff021916908315150217905550565b6000806000806000611e18612d39565b601787600281101515611e2757fe5b6007020160e060405190810160405290816000820160009054906101000a900460ff166001811115611e5557fe5b6001811115611e6057fe5b8152602001600182015481526020016002820160009054906101000a900473ffffffffffffffffffffffffffffffffffffffff1673ffffffffffffffffffffffffffffffffffffffff1673ffffffffffffffffffffffffffffffffffffffff16815260200160038201548152602001600482015481526020016005820154815260200160068201548152505090508060200151816060015182608001518360a001518460c00151955095509550955095505091939590929450565b60008060019054906101000a900473ffffffffffffffffffffffffffffffffffffffff1673ffffffffffffffffffffffffffffffffffffffff163373ffffffffffffffffffffffffffffffffffffffff16141515611f7857600080fd5b60176001600281101515611f8857fe5b600702019050818160010181905550611fa160016128ed565b7fb61c7a90005ce2d07af7a8f94e006cca4ca972cc628406f4c86f9205e3ab303860405160405180910390a15050565b6000600c54905090565b600f60003373ffffffffffffffffffffffffffffffffffffffff1673ffffffffffffffffffffffffffffffffffffffff16815260200190815260200160002060009054906101000a900460ff1615151561203457600080fd5b6000600160009054906101000a900473ffffffffffffffffffffffffffffffffffffffff1673ffffffffffffffffffffffffffffffffffffffff1614151561207b57600080fd5b33600160006101000a81548173ffffffffffffffffffffffffffffffffffffffff021916908373ffffffffffffffffffffffffffffffffffffffff160217905550600160009054906101000a900473ffffffffffffffffffffffffffffffffffffffff1673ffffffffffffffffffffffffffffffffffffffff167fe2ea68412b1c74abf741ffc807e10ee138cf8184ec4bbc5cfa2ece494df9f73d60405160405180910390a2565b600080600080600080600080600061214b601580549050600454612d2090919063ffffffff16565b9250612167601680549050600554612d2090919063ffffffff16565b91503073ffffffffffffffffffffffffffffffffffffffff163190508281600b5484600654600754985098509850985098509850505050909192939495565b60008060006026546025805490500390508060265492509250509091565b6000600160009054906101000a900473ffffffffffffffffffffffffffffffffffffffff16905090565b606060008060008060006002600354600060019054906101000a900473ffffffffffffffffffffffffffffffffffffffff16600160009054906101000a900473ffffffffffffffffffffffffffffffffffffffff16600454600554858054600181600116156101000203166002900480601f0160208091040260200160405190810160405280929190818152602001828054600181600116156101000203166002900480156122de5780601f106122b3576101008083540402835291602001916122de565b820191906000526020600020905b8154815290600101906020018083116122c157829003601f168201915b50505050509550955095509550955095509550909192939495565b6060600080612306612d98565b61230e612e32565b612316612e32565b600f60008873ffffffffffffffffffffffffffffffffffffffff1673ffffffffffffffffffffffffffffffffffffffff16815260200190815260200160002060009054906101000a900460ff161561247d57600d60008873ffffffffffffffffffffffffffffffffffffffff1673ffffffffffffffffffffffffffffffffffffffff168152602001908152602001600020604080519081016040529081600082018054600181600116156101000203166002900480601f01602080910402602001604051908101604052809291908181526020018280546001816001161561010002031660029004801561244b5780601f106124205761010080835404028352916020019161244b565b820191906000526020600020905b81548152906001019060200180831161242e57829003601f168201915b50505050508152602001600182015481525050925082600001518360200151600182925080905095509550955061280f565b601260008873ffffffffffffffffffffffffffffffffffffffff1673ffffffffffffffffffffffffffffffffffffffff16815260200190815260200160002060009054906101000a900460ff16156125e457601060008873ffffffffffffffffffffffffffffffffffffffff1673ffffffffffffffffffffffffffffffffffffffff168152602001908152602001600020604080519081016040529081600082018054600181600116156101000203166002900480601f0160208091040260200160405190810160405280929190818152602001828054600181600116156101000203166002900480156125b25780601f10612587576101008083540402835291602001916125b2565b820191906000526020600020905b81548152906001019060200180831161259557829003601f168201915b50505050508152602001600182015481525050915081600001518260200151600282925080905095509550955061280f565b600160009054906101000a900473ffffffffffffffffffffffffffffffffffffffff1673ffffffffffffffffffffffffffffffffffffffff168773ffffffffffffffffffffffffffffffffffffffff16141561268557600c5460036040805190810160405280600a81526020017f676f7665726e6d656e7400000000000000000000000000000000000000000000815250919080905095509550955061280f565b601360008873ffffffffffffffffffffffffffffffffffffffff1673ffffffffffffffffffffffffffffffffffffffff16815260200190815260200160002060009054906101000a900460ff16156127ec57601060008873ffffffffffffffffffffffffffffffffffffffff1673ffffffffffffffffffffffffffffffffffffffff168152602001908152602001600020604080519081016040529081600082018054600181600116156101000203166002900480601f0160208091040260200160405190810160405280929190818152602001828054600181600116156101000203166002900480156127ba5780601f1061278f576101008083540402835291602001916127ba565b820191906000526020600020905b81548152906001019060200180831161279d57829003601f168201915b50505050508152602001600182015481525050905080600001518160200151600482925080905095509550955061280f565b600080602060405190810160405280600081525091908191508090509550955095505b5050509193909250565b600160009054906101000a900473ffffffffffffffffffffffffffffffffffffffff1673ffffffffffffffffffffffffffffffffffffffff163373ffffffffffffffffffffffffffffffffffffffff1614151561287557600080fd5b600081101580156128865750606481105b156128ea578060088190555061289c60006128ed565b6128a660016128ed565b3373ffffffffffffffffffffffffffffffffffffffff167ff5c78b4fba5c9dd9f3766d019ec37498d112c1bb4add75440e1a217dbcecc8d060405160405180910390a25b50565b60006017826002811015156128fe57fe5b60070201905061293060646129226008548460010154612a6e90919063ffffffff16565b612a5390919063ffffffff16565b816003018190555061297a606461296c60095461295e85600301548660010154612d2090919063ffffffff16565b612a6e90919063ffffffff16565b612a5390919063ffffffff16565b81600401819055506129da60646129cc600a546129be85600401546129b087600301548860010154612d2090919063ffffffff16565b612d2090919063ffffffff16565b612a6e90919063ffffffff16565b612a5390919063ffffffff16565b8160050181905550612a298160050154612a1b8360040154612a0d85600301548660010154612d2090919063ffffffff16565b612d2090919063ffffffff16565b612d2090919063ffffffff16565b81600601819055505050565b6000808284019050838110151515612a4957fe5b8091505092915050565b6000808284811515612a6157fe5b0490508091505092915050565b60008082840290506000841480612a8f5750828482811515612a8c57fe5b04145b1515612a9757fe5b8091505092915050565b6000612aba600454600354612a5390919063ffffffff16565b905090565b6000806000601160008573ffffffffffffffffffffffffffffffffffffffff1673ffffffffffffffffffffffffffffffffffffffff16815260200190815260200160002054915060026016805490501180612b21575060016016805490500382105b15612c07576016600160168054905003815481101515612b3d57fe5b9060005260206000200160009054906101000a900473ffffffffffffffffffffffffffffffffffffffff16905080601683815481101515612b7a57fe5b9060005260206000200160006101000a81548173ffffffffffffffffffffffffffffffffffffffff021916908373ffffffffffffffffffffffffffffffffffffffff16021790555081601160008373ffffffffffffffffffffffffffffffffffffffff1673ffffffffffffffffffffffffffffffffffffffff168152602001908152602001600020819055505b6016600160168054905003815481101515612c1e57fe5b9060005260206000200160006101000a81549073ffffffffffffffffffffffffffffffffffffffff02191690556016805480919060019003612c609190612e4c565b506000601260008673ffffffffffffffffffffffffffffffffffffffff1673ffffffffffffffffffffffffffffffffffffffff16815260200190815260200160002060006101000a81548160ff0219169083151502179055506001601360008673ffffffffffffffffffffffffffffffffffffffff1673ffffffffffffffffffffffffffffffffffffffff16815260200190815260200160002060006101000a81548160ff02191690831515021790555060168054905092505050919050565b6000828211151515612d2e57fe5b818303905092915050565b60e06040519081016040528060006001811115612d5257fe5b815260200160008152602001600073ffffffffffffffffffffffffffffffffffffffff168152602001600081526020016000815260200160008152602001600081525090565b604080519081016040528060608152602001600081525090565b828054600181600116156101000203166002900490600052602060002090601f016020900481019282601f10612df357805160ff1916838001178555612e21565b82800160010185558215612e21579182015b82811115612e20578251825591602001919060010190612e05565b5b509050612e2e9190612e78565b5090565b604080519081016040528060608152602001600081525090565b815481835581811115612e7357818360005260206000209182019101612e729190612e78565b5b505050565b612e9a91905b80821115612e96576000816000905550600101612e7e565b5090565b905600a165627a7a7230582070f9f1d99a4df0016e8377218436cd75b02599e6d5dac89e14287c6ad1dee8580029",
  "source": "pragma solidity ^0.4.23;\r\n\r\nimport \"./Owners.sol\";\r\n\r\n/** @title Employees describes specific functions to be an employee of the bar */\r\ncontract Employees is Owners {\r\n\r\n    Beverage[] ordersList; // array that stores customer's orders\r\n    uint currentOrder = 0; // used by the employee to serve the customers\r\n\r\n    event EmployeeEvent();\r\n\r\n    modifier hasOrders() {\r\n        require(currentOrder < ordersList.length);\r\n        _;\r\n    }\r\n\r\n    /** @dev allows the current user to be an employee of the bar.\r\n      * Everybody can be an employee as long as there are enough jobs available\r\n      */\r\n    function beEmployee(string _name) external isNotEmployee isJobAvailable {\r\n        require(bytes(_name).length <= 20);\r\n        Employee memory _newEmployee = Employee(_name, 0);\r\n        employeesMap[msg.sender] = _newEmployee; // check memory storage state of a map\r\n        employeesIdMap[msg.sender] = employeesList.push(msg.sender) - 1;\r\n        isEmployeeMap[msg.sender] = true;\r\n        emit EmployeeEvent();\r\n    }\r\n\r\n    /** @dev get the state of the orders.\r\n    * @return _pendingOrdersNb: number of customers waiting to be served\r\n    * @return currentOrder: the next customer to serve*/\r\n    function getOrdersData() external view returns(uint, uint) {\r\n        uint _pendingOrdersNb = ordersList.length - currentOrder;\r\n        return (_pendingOrdersNb, currentOrder); // pending orders, orders served\r\n    }\r\n\r\n    /**\r\n    * @dev Employee serves the customer IRL. This function split the revenues\r\n    * from the single sale and distribute it to the government, the manager,\r\n    * the employee who served the customer, the shareHolders/co-owners.\r\n    */\r\n    function serveCustomer() public authorized isEmployee hasOrders{\r\n        require(currentOrder < ordersList.length);\r\n        Beverage memory bebida = ordersList[currentOrder];\r\n\r\n        // remove 1 unit from the stock\r\n        if(bebida.drink == Drinks.PinteOfBeer) {\r\n            beerStock--;\r\n        } else if(bebida.drink == Drinks.GlassOfWine) {\r\n            wineStock--;\r\n        }\r\n\r\n        // redistribution ------------\r\n\r\n        customerPendingOrders[customer]--; // reduce pending order from the customer\r\n        address customer = bebida.customer;\r\n\r\n        // toEmployee\r\n        Employee storage _worker = employeesMap[msg.sender];\r\n        _worker.balance = _worker.balance.add(bebida.toEmployee);\r\n\r\n        govBalance = govBalance.add(bebida.toGov);\r\n        treasuryBalance = treasuryBalance.add(bebida.toTreasury);\r\n\r\n        // uint toShareHolders\r\n        bebida.toShareHolders;\r\n        uint dividendPerShare = bebida.toShareHolders.div(maxShares);\r\n\r\n        // manager\r\n        Owner storage _manager = ownersMap[managerAddress];\r\n        _manager.balance =_manager.balance.add(dividendPerShare.mul(1+ maxShares - ownersList.length));\r\n\r\n        // co-owners\r\n        for (uint i=1; i<ownersList.length; i++) {\r\n            address _ownerAddress = ownersList[i];\r\n            Owner storage _owner = ownersMap[_ownerAddress];\r\n            _owner.balance += dividendPerShare;\r\n        }\r\n\r\n        currentOrder++;\r\n    }\r\n\r\n    function quitJob() public isEmployee {\r\n        _removeEmployee(msg.sender);\r\n    }\r\n\r\n    function fireEmployee(address _employee) public isManager isEmployeeAddress(_employee){\r\n        _removeEmployee(_employee);\r\n    }\r\n\r\n    function _removeEmployee(address _employee) private returns(uint){\r\n        uint index = employeesIdMap[_employee];\r\n        if(employeesList.length > 2 || index < employeesList.length -1) {\r\n            // we put the last address to the index of\r\n            // the employee address we want to delete\r\n            address lastAddress = employeesList[employeesList.length-1];\r\n            employeesList[index] = lastAddress;\r\n            employeesIdMap[lastAddress] = index;\r\n        }\r\n\r\n        delete employeesList[employeesList.length-1];\r\n        employeesList.length--;\r\n        isEmployeeMap[_employee] = false;\r\n        lastPayCheckMap[_employee] = true; // allow the user to withdraw his salary\r\n\r\n        return(employeesList.length);\r\n    }\r\n}\r\n",
  "sourcePath": "C:\\Users\\Jacques\\SOLIDITY-PROJECTS\\finalproject2\\contracts\\Employees.sol",
  "compiler": {
    "name": "solc",
    "version": "0.4.24+commit.e67f0147.Emscripten.clang"
  },
  "schemaVersion": "2.0.0",
  "updatedAt": "2018-08-27T00:13:51.255Z"
}