{
  "contractName": "Entity",
  "abi": [
    {
      "constant": true,
      "inputs": [],
      "name": "wineStock",
      "outputs": [
        {
          "name": "",
          "type": "uint256"
        }
      ],
      "payable": false,
      "stateMutability": "view",
      "type": "function"
    },
    {
      "constant": true,
      "inputs": [],
      "name": "beerStock",
      "outputs": [
        {
          "name": "",
          "type": "uint256"
        }
      ],
      "payable": false,
      "stateMutability": "view",
      "type": "function"
    },
    {
      "inputs": [],
      "payable": false,
      "stateMutability": "nonpayable",
      "type": "constructor"
    },
    {
      "payable": true,
      "stateMutability": "payable",
      "type": "fallback"
    },
    {
      "anonymous": false,
      "inputs": [],
      "name": "BeerPriceEvent",
      "type": "event"
    },
    {
      "anonymous": false,
      "inputs": [],
      "name": "WinePriceEvent",
      "type": "event"
    },
    {
      "anonymous": false,
      "inputs": [],
      "name": "SalaryRatioEvent",
      "type": "event"
    },
    {
      "anonymous": false,
      "inputs": [],
      "name": "DividendRatioEvent",
      "type": "event"
    },
    {
      "anonymous": false,
      "inputs": [],
      "name": "WithdrawEvent",
      "type": "event"
    },
    {
      "constant": false,
      "inputs": [],
      "name": "stopContract",
      "outputs": [],
      "payable": false,
      "stateMutability": "nonpayable",
      "type": "function"
    },
    {
      "constant": false,
      "inputs": [],
      "name": "resumeContract",
      "outputs": [],
      "payable": false,
      "stateMutability": "nonpayable",
      "type": "function"
    },
    {
      "constant": false,
      "inputs": [
        {
          "name": "_priceInWei",
          "type": "uint256"
        }
      ],
      "name": "setBeerPrice",
      "outputs": [],
      "payable": false,
      "stateMutability": "nonpayable",
      "type": "function"
    },
    {
      "constant": false,
      "inputs": [
        {
          "name": "_priceInWei",
          "type": "uint256"
        }
      ],
      "name": "setWinePrice",
      "outputs": [],
      "payable": false,
      "stateMutability": "nonpayable",
      "type": "function"
    },
    {
      "constant": false,
      "inputs": [
        {
          "name": "_salaryRatio",
          "type": "uint256"
        }
      ],
      "name": "setSalaryRatio",
      "outputs": [],
      "payable": false,
      "stateMutability": "nonpayable",
      "type": "function"
    },
    {
      "constant": false,
      "inputs": [
        {
          "name": "_dividendRatio",
          "type": "uint256"
        }
      ],
      "name": "setDividendRatio",
      "outputs": [],
      "payable": false,
      "stateMutability": "nonpayable",
      "type": "function"
    },
    {
      "constant": false,
      "inputs": [],
      "name": "withdraw",
      "outputs": [],
      "payable": false,
      "stateMutability": "nonpayable",
      "type": "function"
    },
    {
      "constant": true,
      "inputs": [
        {
          "name": "_id",
          "type": "uint256"
        }
      ],
      "name": "getRevenueDistribution",
      "outputs": [
        {
          "name": "",
          "type": "uint256"
        },
        {
          "name": "",
          "type": "uint256"
        },
        {
          "name": "",
          "type": "uint256"
        },
        {
          "name": "",
          "type": "uint256"
        },
        {
          "name": "",
          "type": "uint256"
        }
      ],
      "payable": false,
      "stateMutability": "view",
      "type": "function"
    },
    {
      "constant": true,
      "inputs": [],
      "name": "getBarFixData",
      "outputs": [
        {
          "name": "",
          "type": "string"
        },
        {
          "name": "",
          "type": "uint256"
        },
        {
          "name": "",
          "type": "address"
        },
        {
          "name": "",
          "type": "address"
        },
        {
          "name": "",
          "type": "uint256"
        },
        {
          "name": "",
          "type": "uint256"
        }
      ],
      "payable": false,
      "stateMutability": "view",
      "type": "function"
    },
    {
      "constant": true,
      "inputs": [],
      "name": "getBarVariables",
      "outputs": [
        {
          "name": "",
          "type": "uint256"
        },
        {
          "name": "",
          "type": "uint256"
        },
        {
          "name": "",
          "type": "uint256"
        },
        {
          "name": "",
          "type": "uint256"
        },
        {
          "name": "",
          "type": "uint256"
        },
        {
          "name": "",
          "type": "uint256"
        }
      ],
      "payable": false,
      "stateMutability": "view",
      "type": "function"
    },
    {
      "constant": true,
      "inputs": [],
      "name": "getEconomicVariables",
      "outputs": [
        {
          "name": "",
          "type": "uint256"
        },
        {
          "name": "",
          "type": "uint256"
        },
        {
          "name": "",
          "type": "uint256"
        },
        {
          "name": "",
          "type": "uint256"
        },
        {
          "name": "",
          "type": "uint256"
        }
      ],
      "payable": false,
      "stateMutability": "view",
      "type": "function"
    },
    {
      "constant": true,
      "inputs": [
        {
          "name": "_address",
          "type": "address"
        }
      ],
      "name": "getUserAccount",
      "outputs": [
        {
          "name": "",
          "type": "string"
        },
        {
          "name": "",
          "type": "uint256"
        },
        {
          "name": "",
          "type": "uint256"
        }
      ],
      "payable": false,
      "stateMutability": "view",
      "type": "function"
    },
    {
      "constant": true,
      "inputs": [],
      "name": "getGovAddress",
      "outputs": [
        {
          "name": "",
          "type": "address"
        }
      ],
      "payable": false,
      "stateMutability": "view",
      "type": "function"
    },
    {
      "constant": true,
      "inputs": [],
      "name": "getGovBalance",
      "outputs": [
        {
          "name": "",
          "type": "uint256"
        }
      ],
      "payable": false,
      "stateMutability": "view",
      "type": "function"
    },
    {
      "constant": true,
      "inputs": [],
      "name": "getTreasuryBalance",
      "outputs": [
        {
          "name": "",
          "type": "uint256"
        }
      ],
      "payable": false,
      "stateMutability": "view",
      "type": "function"
    },
    {
      "constant": true,
      "inputs": [],
      "name": "getEmployeesListNumbers",
      "outputs": [
        {
          "name": "",
          "type": "uint256"
        },
        {
          "name": "",
          "type": "uint256"
        }
      ],
      "payable": false,
      "stateMutability": "view",
      "type": "function"
    },
    {
      "constant": true,
      "inputs": [],
      "name": "getOwnerListNumbers",
      "outputs": [
        {
          "name": "",
          "type": "uint256"
        },
        {
          "name": "",
          "type": "uint256"
        }
      ],
      "payable": false,
      "stateMutability": "view",
      "type": "function"
    },
    {
      "constant": true,
      "inputs": [],
      "name": "getContractBalance",
      "outputs": [
        {
          "name": "",
          "type": "uint256"
        }
      ],
      "payable": false,
      "stateMutability": "view",
      "type": "function"
    },
    {
      "constant": true,
      "inputs": [],
      "name": "getAvailableJobs",
      "outputs": [
        {
          "name": "",
          "type": "uint256"
        }
      ],
      "payable": false,
      "stateMutability": "view",
      "type": "function"
    }
  ],
  "bytecode": "0x608060405260008060006101000a81548160ff0219169083151502179055506000600160006101000a81548173ffffffffffffffffffffffffffffffffffffffff021916908373ffffffffffffffffffffffffffffffffffffffff1602179055503480156200006d57600080fd5b5062000078620007f9565b33600060016101000a81548173ffffffffffffffffffffffffffffffffffffffff021916908373ffffffffffffffffffffffffffffffffffffffff1602179055506040805190810160405280600e81526020017f4841524420464f524b2043414645000000000000000000000000000000000000815250600290805190602001906200010692919062000813565b50681b1ae4d6e2ef5000006003819055506064600481905550600a60058190555061019060068190555060fa6007819055506021600881905550600a6009819055506028600a8190555060408051908101604052806040805190810160405280600f81526020017f424f4220544845204d414e41474552000000000000000000000000000000000081525081526020016000815250905080600d60003373ffffffffffffffffffffffffffffffffffffffff1673ffffffffffffffffffffffffffffffffffffffff1681526020019081526020016000206000820151816000019080519060200190620001fb9291906200089a565b5060208201518160010155905050600160153390806001815401808255809150509060018203906000526020600020016000909192909190916101000a81548173ffffffffffffffffffffffffffffffffffffffff021916908373ffffffffffffffffffffffffffffffffffffffff16021790555003600e60003373ffffffffffffffffffffffffffffffffffffffff1673ffffffffffffffffffffffffffffffffffffffff168152602001908152602001600020819055506001600f60003373ffffffffffffffffffffffffffffffffffffffff1673ffffffffffffffffffffffffffffffffffffffff16815260200190815260200160002060006101000a81548160ff02191690831515021790555060e060405190810160405280600060018111156200032657fe5b8152602001665575e121efee698152602001600073ffffffffffffffffffffffffffffffffffffffff1681526020016000815260200160008152602001600081526020016000815250601760006002811015156200038057fe5b6007020160008201518160000160006101000a81548160ff02191690836001811115620003a957fe5b02179055506020820151816001015560408201518160020160006101000a81548173ffffffffffffffffffffffffffffffffffffffff021916908373ffffffffffffffffffffffffffffffffffffffff160217905550606082015181600301556080820151816004015560a0820151816005015560c0820151816006015590505060e0604051908101604052806001808111156200044357fe5b8152602001663d0b0e85f485b88152602001600073ffffffffffffffffffffffffffffffffffffffff1681526020016000815260200160008152602001600081526020016000815250601760016002811015156200049d57fe5b6007020160008201518160000160006101000a81548160ff02191690836001811115620004c657fe5b02179055506020820151816001015560408201518160020160006101000a81548173ffffffffffffffffffffffffffffffffffffffff021916908373ffffffffffffffffffffffffffffffffffffffff160217905550606082015181600301556080820151816004015560a0820151816005015560c0820151816006015590505062000562600062000584640100000000026401000000009004565b6200057d600162000584640100000000026401000000009004565b5062000949565b60006017826002811015156200059657fe5b600702019050620005e86064620005cb60085484600101546200078d6401000000000262001a63179091906401000000009004565b620007c36401000000000262001a96179091906401000000009004565b8160030181905550620006626064620006456009546200062885600301548660010154620007df6401000000000262001a4a179091906401000000009004565b6200078d6401000000000262001a63179091906401000000009004565b620007c36401000000000262001a96179091906401000000009004565b8160040181905550620007026064620006e5600a54620006c88560040154620006ab87600301548860010154620007df6401000000000262001a4a179091906401000000009004565b620007df6401000000000262001a4a179091906401000000009004565b6200078d6401000000000262001a63179091906401000000009004565b620007c36401000000000262001a96179091906401000000009004565b81600501819055506200078181600501546200076483600401546200074785600301548660010154620007df6401000000000262001a4a179091906401000000009004565b620007df6401000000000262001a4a179091906401000000009004565b620007df6401000000000262001a4a179091906401000000009004565b81600601819055505050565b60008082840290506000841480620007b05750828482811515620007ad57fe5b04145b1515620007b957fe5b8091505092915050565b6000808284811515620007d257fe5b0490508091505092915050565b6000828211151515620007ee57fe5b818303905092915050565b604080519081016040528060608152602001600081525090565b828054600181600116156101000203166002900490600052602060002090601f016020900481019282601f106200085657805160ff191683800117855562000887565b8280016001018555821562000887579182015b828111156200088657825182559160200191906001019062000869565b5b50905062000896919062000921565b5090565b828054600181600116156101000203166002900490600052602060002090601f016020900481019282601f10620008dd57805160ff19168380011785556200090e565b828001600101855582156200090e579182015b828111156200090d578251825591602001919060010190620008f0565b5b5090506200091d919062000921565b5090565b6200094691905b808211156200094257600081600090555060010162000928565b5090565b90565b611b7080620009596000396000f30060806040526004361061011d576000357c0100000000000000000000000000000000000000000000000000000000900463ffffffff16806312253a6c1461013a5780631a478b94146101515780631aa15bbe1461017e5780631f731c5d146101a95780633ccfd60b146101f05780634c2e589d146102075780634e3323171461023457806360f469351461025f5780636f9fb98a1461028c5780638e29e027146102b757806399866b6d146102e25780639b5655dc14610314578063b55c56c11461033f578063c4bc5da514610371578063c655af3c14610388578063d0057fd9146103e5578063d3cd0dc914610412578063e16e7d0b1461043d578063ef4a63b81461048b578063fa33545c146104e2578063fb47e016146105ed575b6000809054906101000a900460ff1615151561013857600080fd5b005b34801561014657600080fd5b5061014f6106b7565b005b34801561015d57600080fd5b5061017c6004803603810190808035906020019092919050505061072f565b005b34801561018a57600080fd5b506101936107ec565b6040518082815260200191505060405180910390f35b3480156101b557600080fd5b506101be6107fd565b604051808681526020018581526020018481526020018381526020018281526020019550505050505060405180910390f35b3480156101fc57600080fd5b5061020561085a565b005b34801561021357600080fd5b5061023260048036038101908080359060200190929190505050610e0f565b005b34801561024057600080fd5b50610249610ec5565b6040518082815260200191505060405180910390f35b34801561026b57600080fd5b5061028a60048036038101908080359060200190929190505050610ecb565b005b34801561029857600080fd5b506102a1610f88565b6040518082815260200191505060405180910390f35b3480156102c357600080fd5b506102cc610fa7565b6040518082815260200191505060405180910390f35b3480156102ee57600080fd5b506102f7610fad565b604051808381526020018281526020019250505060405180910390f35b34801561032057600080fd5b50610329610fc1565b6040518082815260200191505060405180910390f35b34801561034b57600080fd5b50610354610fcb565b604051808381526020018281526020019250505060405180910390f35b34801561037d57600080fd5b50610386610fdf565b005b34801561039457600080fd5b506103b360048036038101908080359060200190929190505050611057565b604051808681526020018581526020018481526020018381526020018281526020019550505050505060405180910390f35b3480156103f157600080fd5b506104106004803603810190808035906020019092919050505061116a565b005b34801561041e57600080fd5b50610427611220565b6040518082815260200191505060405180910390f35b34801561044957600080fd5b5061045261122a565b60405180878152602001868152602001858152602001848152602001838152602001828152602001965050505050505060405180910390f35b34801561049757600080fd5b506104a06112ad565b604051808273ffffffffffffffffffffffffffffffffffffffff1673ffffffffffffffffffffffffffffffffffffffff16815260200191505060405180910390f35b3480156104ee57600080fd5b506104f76112d7565b60405180806020018781526020018673ffffffffffffffffffffffffffffffffffffffff1673ffffffffffffffffffffffffffffffffffffffff1681526020018573ffffffffffffffffffffffffffffffffffffffff1673ffffffffffffffffffffffffffffffffffffffff168152602001848152602001838152602001828103825288818151815260200191508051906020019080838360005b838110156105ad578082015181840152602081019050610592565b50505050905090810190601f1680156105da5780820380516001836020036101000a031916815260200191505b5097505050505050505060405180910390f35b3480156105f957600080fd5b5061062e600480360381019080803573ffffffffffffffffffffffffffffffffffffffff1690602001909291905050506113e2565b6040518080602001848152602001838152602001828103825285818151815260200191508051906020019080838360005b8381101561067a57808201518184015260208101905061065f565b50505050905090810190601f1680156106a75780820380516001836020036101000a031916815260200191505b5094505050505060405180910390f35b600060019054906101000a900473ffffffffffffffffffffffffffffffffffffffff1673ffffffffffffffffffffffffffffffffffffffff163373ffffffffffffffffffffffffffffffffffffffff1614151561071357600080fd5b60016000806101000a81548160ff021916908315150217905550565b600060019054906101000a900473ffffffffffffffffffffffffffffffffffffffff1673ffffffffffffffffffffffffffffffffffffffff163373ffffffffffffffffffffffffffffffffffffffff1614151561078b57600080fd5b6000811015801561079c5750606481105b156107e957806009819055506107b26000611902565b6107bc6001611902565b7f45f3a23c7e881769d4c9588f5bc54d911aaa242e98f6998be38c3703842c863560405160405180910390a15b50565b600060168054905060055403905090565b60008060008060008060006017600060028110151561081857fe5b600702016001015491506017600160028110151561083257fe5b600702016001015490508181600954600a546008549650965096509650965050509091929394565b600080600080600060019054906101000a900473ffffffffffffffffffffffffffffffffffffffff1673ffffffffffffffffffffffffffffffffffffffff163373ffffffffffffffffffffffffffffffffffffffff1614806109095750600160009054906101000a900473ffffffffffffffffffffffffffffffffffffffff1673ffffffffffffffffffffffffffffffffffffffff163373ffffffffffffffffffffffffffffffffffffffff16145b8061095d5750600f60003373ffffffffffffffffffffffffffffffffffffffff1673ffffffffffffffffffffffffffffffffffffffff16815260200190815260200160002060009054906101000a900460ff165b806109b15750601260003373ffffffffffffffffffffffffffffffffffffffff1673ffffffffffffffffffffffffffffffffffffffff16815260200190815260200160002060009054906101000a900460ff165b15156109bc57600080fd5b6000809054906101000a900460ff161515156109d757600080fd5b3073ffffffffffffffffffffffffffffffffffffffff16319250600160009054906101000a900473ffffffffffffffffffffffffffffffffffffffff1673ffffffffffffffffffffffffffffffffffffffff163373ffffffffffffffffffffffffffffffffffffffff161415610abd57600c5493506000600c819055503373ffffffffffffffffffffffffffffffffffffffff166108fc859081150290604051600060405180830381858888f193505050501515610a9457600080fd5b8383033073ffffffffffffffffffffffffffffffffffffffff1631141515610ab857fe5b610ddd565b600060019054906101000a900473ffffffffffffffffffffffffffffffffffffffff1673ffffffffffffffffffffffffffffffffffffffff163373ffffffffffffffffffffffffffffffffffffffff161480610b625750600f60003373ffffffffffffffffffffffffffffffffffffffff1673ffffffffffffffffffffffffffffffffffffffff16815260200190815260200160002060009054906101000a900460ff165b15610c2257600d60003373ffffffffffffffffffffffffffffffffffffffff1673ffffffffffffffffffffffffffffffffffffffff168152602001908152602001600020915081600101549350600082600101819055503373ffffffffffffffffffffffffffffffffffffffff166108fc859081150290604051600060405180830381858888f193505050501515610bf957600080fd5b8383033073ffffffffffffffffffffffffffffffffffffffff1631141515610c1d57fe5b610ddc565b601260003373ffffffffffffffffffffffffffffffffffffffff1673ffffffffffffffffffffffffffffffffffffffff16815260200190815260200160002060009054906101000a900460ff1680610cc35750601360003373ffffffffffffffffffffffffffffffffffffffff1673ffffffffffffffffffffffffffffffffffffffff16815260200190815260200160002060009054906101000a900460ff165b15610ddb57601060003373ffffffffffffffffffffffffffffffffffffffff1673ffffffffffffffffffffffffffffffffffffffff168152602001908152602001600020905080600101549350600081600101819055506000601360003373ffffffffffffffffffffffffffffffffffffffff1673ffffffffffffffffffffffffffffffffffffffff16815260200190815260200160002060006101000a81548160ff0219169083151502179055503373ffffffffffffffffffffffffffffffffffffffff166108fc82600101549081150290604051600060405180830381858888f193505050501515610db657600080fd5b8383033073ffffffffffffffffffffffffffffffffffffffff1631141515610dda57fe5b5b5b5b7fedf4c498a33515202a60039146725349bac735e8e1de60466b9ac800302cbae160405160405180910390a150505050565b60008060019054906101000a900473ffffffffffffffffffffffffffffffffffffffff1673ffffffffffffffffffffffffffffffffffffffff163373ffffffffffffffffffffffffffffffffffffffff16141515610e6c57600080fd5b60176000600281101515610e7c57fe5b600702019050818160010181905550610e956000611902565b7facc7b9eaf1ff3bee21db509289180435b1fdd8f49212c96e318c1f87fa9420ba60405160405180910390a15050565b60075481565b600060019054906101000a900473ffffffffffffffffffffffffffffffffffffffff1673ffffffffffffffffffffffffffffffffffffffff163373ffffffffffffffffffffffffffffffffffffffff16141515610f2757600080fd5b60008110158015610f385750606481105b15610f855780600a81905550610f4e6000611902565b610f586001611902565b7f31c61375bcb60f9eb97e6962303171d2eb0529486a0dbd519ecbbab89c21270460405160405180910390a15b50565b60003073ffffffffffffffffffffffffffffffffffffffff1631905090565b60065481565b600080601680549050600554915091509091565b6000600b54905090565b600080601580549050600454915091509091565b600060019054906101000a900473ffffffffffffffffffffffffffffffffffffffff1673ffffffffffffffffffffffffffffffffffffffff163373ffffffffffffffffffffffffffffffffffffffff1614151561103b57600080fd5b60008060006101000a81548160ff021916908315150217905550565b6000806000806000611067611ab1565b60178760028110151561107657fe5b6007020160e060405190810160405290816000820160009054906101000a900460ff1660018111156110a457fe5b60018111156110af57fe5b8152602001600182015481526020016002820160009054906101000a900473ffffffffffffffffffffffffffffffffffffffff1673ffffffffffffffffffffffffffffffffffffffff1673ffffffffffffffffffffffffffffffffffffffff16815260200160038201548152602001600482015481526020016005820154815260200160068201548152505090508060200151816060015182608001518360a001518460c00151955095509550955095505091939590929450565b60008060019054906101000a900473ffffffffffffffffffffffffffffffffffffffff1673ffffffffffffffffffffffffffffffffffffffff163373ffffffffffffffffffffffffffffffffffffffff161415156111c757600080fd5b601760016002811015156111d757fe5b6007020190508181600101819055506111f06001611902565b7fb61c7a90005ce2d07af7a8f94e006cca4ca972cc628406f4c86f9205e3ab303860405160405180910390a15050565b6000600c54905090565b6000806000806000806000806000611252601580549050600454611a4a90919063ffffffff16565b925061126e601680549050600554611a4a90919063ffffffff16565b91503073ffffffffffffffffffffffffffffffffffffffff163190508281600b5484600654600754985098509850985098509850505050909192939495565b6000600160009054906101000a900473ffffffffffffffffffffffffffffffffffffffff16905090565b606060008060008060006002600354600060019054906101000a900473ffffffffffffffffffffffffffffffffffffffff16600160009054906101000a900473ffffffffffffffffffffffffffffffffffffffff16600454600554858054600181600116156101000203166002900480601f0160208091040260200160405190810160405280929190818152602001828054600181600116156101000203166002900480156113c75780601f1061139c576101008083540402835291602001916113c7565b820191906000526020600020905b8154815290600101906020018083116113aa57829003601f168201915b50505050509550955095509550955095509550909192939495565b60606000806113ef611b10565b6113f7611b2a565b6113ff611b2a565b600f60008873ffffffffffffffffffffffffffffffffffffffff1673ffffffffffffffffffffffffffffffffffffffff16815260200190815260200160002060009054906101000a900460ff161561156657600d60008873ffffffffffffffffffffffffffffffffffffffff1673ffffffffffffffffffffffffffffffffffffffff168152602001908152602001600020604080519081016040529081600082018054600181600116156101000203166002900480601f0160208091040260200160405190810160405280929190818152602001828054600181600116156101000203166002900480156115345780601f1061150957610100808354040283529160200191611534565b820191906000526020600020905b81548152906001019060200180831161151757829003601f168201915b5050505050815260200160018201548152505092508260000151836020015160018292508090509550955095506118f8565b601260008873ffffffffffffffffffffffffffffffffffffffff1673ffffffffffffffffffffffffffffffffffffffff16815260200190815260200160002060009054906101000a900460ff16156116cd57601060008873ffffffffffffffffffffffffffffffffffffffff1673ffffffffffffffffffffffffffffffffffffffff168152602001908152602001600020604080519081016040529081600082018054600181600116156101000203166002900480601f01602080910402602001604051908101604052809291908181526020018280546001816001161561010002031660029004801561169b5780601f106116705761010080835404028352916020019161169b565b820191906000526020600020905b81548152906001019060200180831161167e57829003601f168201915b5050505050815260200160018201548152505091508160000151826020015160028292508090509550955095506118f8565b600160009054906101000a900473ffffffffffffffffffffffffffffffffffffffff1673ffffffffffffffffffffffffffffffffffffffff168773ffffffffffffffffffffffffffffffffffffffff16141561176e57600c5460036040805190810160405280600a81526020017f676f7665726e6d656e740000000000000000000000000000000000000000000081525091908090509550955095506118f8565b601360008873ffffffffffffffffffffffffffffffffffffffff1673ffffffffffffffffffffffffffffffffffffffff16815260200190815260200160002060009054906101000a900460ff16156118d557601060008873ffffffffffffffffffffffffffffffffffffffff1673ffffffffffffffffffffffffffffffffffffffff168152602001908152602001600020604080519081016040529081600082018054600181600116156101000203166002900480601f0160208091040260200160405190810160405280929190818152602001828054600181600116156101000203166002900480156118a35780601f10611878576101008083540402835291602001916118a3565b820191906000526020600020905b81548152906001019060200180831161188657829003601f168201915b5050505050815260200160018201548152505090508060000151816020015160048292508090509550955095506118f8565b600080602060405190810160405280600081525091908191508090509550955095505b5050509193909250565b600060178260028110151561191357fe5b60070201905061194560646119376008548460010154611a6390919063ffffffff16565b611a9690919063ffffffff16565b816003018190555061198f606461198160095461197385600301548660010154611a4a90919063ffffffff16565b611a6390919063ffffffff16565b611a9690919063ffffffff16565b81600401819055506119ef60646119e1600a546119d385600401546119c587600301548860010154611a4a90919063ffffffff16565b611a4a90919063ffffffff16565b611a6390919063ffffffff16565b611a9690919063ffffffff16565b8160050181905550611a3e8160050154611a308360040154611a2285600301548660010154611a4a90919063ffffffff16565b611a4a90919063ffffffff16565b611a4a90919063ffffffff16565b81600601819055505050565b6000828211151515611a5857fe5b818303905092915050565b60008082840290506000841480611a845750828482811515611a8157fe5b04145b1515611a8c57fe5b8091505092915050565b6000808284811515611aa457fe5b0490508091505092915050565b60e06040519081016040528060006001811115611aca57fe5b815260200160008152602001600073ffffffffffffffffffffffffffffffffffffffff168152602001600081526020016000815260200160008152602001600081525090565b604080519081016040528060608152602001600081525090565b6040805190810160405280606081526020016000815250905600a165627a7a7230582051fa62b881ab806919a0af3289b1b78ed730ac19c63c71079c1bc04919e9d45c0029",
  "source": "pragma solidity ^0.4.24;\r\n\r\nimport \"./SafeMath.sol\";\r\n\r\n/** @title Entity describes the core aspects of a hypothetical brick and mortar\r\nbusiness called the \"Hard Fork Cafe\" Bar. This contract is not aimed to live\r\non its own on the eth blockchain. It aims to be linked with an IRL business.\r\nIt is a 'template' intended to real owners of IRL bars & cafes businesses who\r\nwant to transition their business toward a more transparent economic system\r\nby letting their customers know where their money goes each time they buy a beer.\r\nBut also by letting them engaged in the business by buying a share or being an\r\nemployee.*/\r\ncontract Entity {\r\n\r\n    using SafeMath for uint;\r\n\r\n    bool isStopped = false; // emergency stop\r\n\r\n    address internal managerAddress;\r\n    address internal govAddress = 0x0;\r\n\r\n    // fixed at creation of the contract\r\n    string private barName;\r\n    uint private assetValue; // in wei\r\n    uint internal maxShares; // 1 share per owner, at creation, all are owned by the Manager\r\n    uint private maxEmployees;\r\n\r\n    // product stocks to sell\r\n    uint public beerStock;\r\n    uint public wineStock;\r\n\r\n    uint internal taxRatio; // tax on beverage from 0 to 90 defined by the Government\r\n    uint internal salaryRatio; // salary on beverage from 0 to 90 defined by the Manager\r\n    uint internal dividendRatio; // dividend on each sales defined by the Manager\r\n\r\n    uint internal treasuryBalance; // use to buy more stocks, currently not implemented\r\n    uint internal govBalance;\r\n\r\n    struct Owner { string name; uint balance; }\r\n    struct Employee { string name; uint balance; }\r\n\r\n    /**\r\n    * @dev we store in this struct the price of a beverage as well as the profit\r\n    * each economic participant will get after the sell is made to a customer.\r\n    * @param drink: type of drinks (pint of beer or glass of wine)\r\n    * @param price: price in wei of the beverage\r\n    * @param customer: address of the buyer of this beverage\r\n    * @param toGov: profit (tax) that the Government will get from this sell\r\n    * @param toEmployee: salary that the employee will get after serving the customer\r\n    * @param toShareHolders: profit that the shareHolders will get after the sell\r\n    * @param toTreasury: remainin that will go to the treasury of the Bar\r\n    */\r\n    struct Beverage {\r\n        Drinks drink;\r\n        uint price;\r\n        address customer;\r\n        uint toGov;\r\n        uint toEmployee;\r\n        uint toShareHolders;\r\n        uint toTreasury;\r\n    }\r\n\r\n    mapping(address => Owner) internal ownersMap;\r\n    mapping(address => uint) internal ownersIdMap; // position in ownersList\r\n    mapping(address => bool) internal isOwnerMap;\r\n\r\n    mapping(address => Employee) internal employeesMap;\r\n    mapping(address => uint) internal employeesIdMap;\r\n    mapping(address => bool) internal isEmployeeMap;\r\n\r\n    mapping(address => bool) internal lastPayCheckMap; // allows fired employees to withdraw funds\r\n    mapping(address => uint) internal customerPendingOrders; // nb of pending order\r\n\r\n    address[] internal ownersList; // length <= maxShares\r\n    address[] employeesList; // length <= maxEmployees\r\n\r\n    enum Drinks { PinteOfBeer, GlassOfWine } //types of drink the bar sells\r\n    Beverage[2] beverages;\r\n\r\n    event BeerPriceEvent ();\r\n    event WinePriceEvent ();\r\n    event SalaryRatioEvent ();\r\n    event DividendRatioEvent ();\r\n    event WithdrawEvent ();\r\n\r\n\r\n    // emergency stop\r\n    modifier authorized {\r\n        require(!isStopped);\r\n        _;\r\n    }\r\n\r\n    modifier hasBeerInStock() {\r\n        require(beerStock > 0);\r\n        _;\r\n    }\r\n\r\n    modifier hasWineInStock() {\r\n        require(wineStock > 0);\r\n        _;\r\n    }\r\n\r\n    modifier isManager() {\r\n        require(msg.sender == managerAddress);\r\n        _;\r\n    }\r\n\r\n    modifier isNotManager() {\r\n        require(msg.sender != managerAddress);\r\n        _;\r\n    }\r\n\r\n    modifier isGov() {\r\n        require(msg.sender == govAddress);\r\n        _;\r\n    }\r\n\r\n    modifier noGovYet() {\r\n        require(govAddress == 0x0);\r\n        _;\r\n    }\r\n\r\n    modifier isOwner() {\r\n        require(isOwnerMap[msg.sender]);\r\n        _;\r\n    }\r\n\r\n    modifier isNotOwner() {\r\n        require(!isOwnerMap[msg.sender]);\r\n        _;\r\n    }\r\n\r\n    modifier isEmployee() {\r\n        require(isEmployeeMap[msg.sender]);\r\n        _;\r\n    }\r\n\r\n    modifier isEmployeeAddress(address _employee) {\r\n        require(isEmployeeMap[_employee]);\r\n        _;\r\n    }\r\n\r\n    modifier isNotEmployee() {\r\n        require(!isEmployeeMap[msg.sender]);\r\n        _;\r\n    }\r\n\r\n    modifier isShareAvailable() {\r\n        require(ownersList.length < maxShares);\r\n        _;\r\n    }\r\n\r\n    modifier isJobAvailable() {\r\n        require(maxEmployees > employeesList.length);\r\n        _;\r\n    }\r\n\r\n    modifier isParticipant() {\r\n        require(\r\n            msg.sender == managerAddress ||\r\n            msg.sender == govAddress ||\r\n            isOwnerMap[msg.sender] ||\r\n            isEmployeeMap[msg.sender]);\r\n        _;\r\n    }\r\n\r\n    /** @dev at deployment of the contract, it creates a bar with default values\r\n    * the person who deploy this contract is the owner of an IRL bar\r\n    */\r\n    constructor() public {\r\n        managerAddress = msg.sender;\r\n        barName = \"HARD FORK CAFE\";\r\n\r\n        // default values\r\n        assetValue = 500000000000000000000; // 500 ethers\r\n        maxShares = 100; // number of shares, the manager is willing to sell\r\n        maxEmployees = 10; // number of jobs, the manager proposed\r\n\r\n        beerStock = 400;\r\n        wineStock = 250;\r\n\r\n        taxRatio = 33;\r\n        salaryRatio = 10;\r\n        dividendRatio = 40;\r\n\r\n        Owner memory _newOwner = Owner(\"BOB THE MANAGER\", 0);\r\n        ownersMap[msg.sender] = _newOwner;\r\n        ownersIdMap[msg.sender] = ownersList.push(msg.sender) - 1;\r\n        isOwnerMap[msg.sender] = true;\r\n\r\n        beverages[0] = Beverage(Drinks.PinteOfBeer, 24054982817869417, 0x0, 0, 0, 0, 0);\r\n        beverages[1] = Beverage(Drinks.GlassOfWine, 17182130584192440, 0x0, 0, 0, 0, 0);\r\n\r\n        _updateRevenuesOnProduct(0);\r\n        _updateRevenuesOnProduct(1);\r\n    }\r\n\r\n    // EMERGENCY STOP ----------------------------------------------------------\r\n\r\n    function stopContract() public isManager {\r\n        isStopped = true;\r\n    }\r\n\r\n    function resumeContract() public isManager {\r\n        isStopped = false;\r\n    }\r\n\r\n    // EXTERNAL ----------------------------------------------------------------\r\n\r\n    /** @dev allows the manager to set the price of a beer */\r\n    function setBeerPrice(uint _priceInWei) external isManager {\r\n        Beverage storage _beer = beverages[0];\r\n        _beer.price = _priceInWei;\r\n        _updateRevenuesOnProduct(0);\r\n        emit BeerPriceEvent();\r\n    }\r\n\r\n    /** @dev allows the manager to set the price of a glass of wine */\r\n    function setWinePrice(uint _priceInWei) external isManager {\r\n        Beverage storage _wine = beverages[1];\r\n        _wine.price = _priceInWei;\r\n        _updateRevenuesOnProduct(1);\r\n        emit WinePriceEvent();\r\n    }\r\n\r\n    /** @dev allows the manager to set the percentage of the selling price that\r\n    * will be allocated to the employee. (TaxRatio is applied first) */\r\n    function setSalaryRatio(uint _salaryRatio) external isManager {\r\n        if(_salaryRatio >= 0 && _salaryRatio < 100) {\r\n            salaryRatio = _salaryRatio;\r\n            _updateRevenuesOnProduct(0);\r\n            _updateRevenuesOnProduct(1);\r\n            emit SalaryRatioEvent();\r\n        }\r\n    }\r\n\r\n    /** @dev allows the manager to set the percentage of the selling price that\r\n    * will be allocated to the co-owners. */\r\n    function setDividendRatio(uint _dividendRatio) external isManager {\r\n        if(_dividendRatio >= 0 && _dividendRatio < 100) {\r\n            dividendRatio = _dividendRatio;\r\n            _updateRevenuesOnProduct(0);\r\n            _updateRevenuesOnProduct(1);\r\n            emit DividendRatioEvent();\r\n        }\r\n    }\r\n\r\n    /** @dev allows the government, the manager, the employee and the ex-employee\r\n    * to withdraw their profits. */\r\n    function withdraw() external isParticipant authorized {\r\n        uint _amountToWithdraw;\r\n        uint balanceBeforeTransfer = address(this).balance;\r\n        if(msg.sender == govAddress) {\r\n            // government\r\n            _amountToWithdraw = govBalance;\r\n            govBalance = 0;\r\n            require(msg.sender.send(_amountToWithdraw));\r\n            assert(address(this).balance == balanceBeforeTransfer - _amountToWithdraw);\r\n\r\n        } else if(msg.sender == managerAddress || isOwnerMap[msg.sender]) {\r\n            // manager or co-owner\r\n            Owner storage _owner = ownersMap[msg.sender];\r\n            _amountToWithdraw = _owner.balance;\r\n            _owner.balance = 0;\r\n            require(msg.sender.send(_amountToWithdraw));\r\n            assert(address(this).balance == balanceBeforeTransfer - _amountToWithdraw);\r\n\r\n        } else if(isEmployeeMap[msg.sender] || lastPayCheckMap[msg.sender]) {\r\n            // employee or ex-employee\r\n            Employee storage _employee = employeesMap[msg.sender];\r\n            _amountToWithdraw = _employee.balance;\r\n            _employee.balance = 0;\r\n            lastPayCheckMap[msg.sender] = false;\r\n            require(msg.sender.send(_employee.balance));\r\n            assert(address(this).balance == balanceBeforeTransfer - _amountToWithdraw); \r\n        }\r\n\r\n        emit WithdrawEvent();\r\n    }\r\n\r\n    /** @dev retrieves the profit distribution of a pint of beer or glass of wine\r\n    * _id: id of the beverage (beer or wine)\r\n    * @return price: price in wei of the beverage\r\n    * @return toGov: profit (tax) that the Government will get from this sell\r\n    * @return toEmployee: salary that the employee will get after serving the customer\r\n    * @return toShareHolders: profit that the shareHolders will get after the sell\r\n    * @return toTreasury: remainin that will go to the treasury of the Bar\r\n    */\r\n    function getRevenueDistribution(uint _id) external view\r\n    returns(uint, uint, uint, uint, uint) {\r\n        Beverage memory product = beverages[_id];\r\n        return(\r\n            product.price,\r\n            product.toGov,\r\n            product.toEmployee,\r\n            product.toShareHolders,\r\n            product.toTreasury\r\n            );\r\n    }\r\n\r\n\r\n    /** @dev retrieve basic values of the bar\r\n     * @return barName\r\n     * @return assetValue value of the Bar in Wei\r\n     * @return managerAddress\r\n     * @return govAddress\r\n     * @return maxShares\r\n     * @return maxEmployees\r\n     */\r\n    function getBarFixData() external view\r\n    returns(string, uint, address, address, uint, uint) {\r\n        return(\r\n            barName,\r\n            assetValue,\r\n            managerAddress,\r\n            govAddress,\r\n            maxShares,\r\n            maxEmployees);\r\n    }\r\n\r\n    /** @dev retrieve values (that depends on the economic activity) of the bar\r\n     * @return shares available\r\n     * @return address balances\r\n     * @return treasuryBalance\r\n     * @return jobsavailable\r\n     * @return beerStock\r\n     * @return wineStock\r\n     */\r\n    function getBarVariables() external view\r\n    returns(uint, uint, uint, uint, uint, uint) {\r\n        uint _sharesAvailable = maxShares.sub(ownersList.length);\r\n        uint _jobsAvailable = maxEmployees.sub(employeesList.length);\r\n        uint _addressBalance = address(this).balance;\r\n        return(\r\n            _sharesAvailable,\r\n            _addressBalance,\r\n            treasuryBalance,\r\n            _jobsAvailable,\r\n            beerStock,\r\n            wineStock);\r\n    }\r\n\r\n    /** @return price of Beer\r\n     * @return price of wine\r\n     * @return salary ratio\r\n     * @return dividendRatio\r\n     * @return taxRatio\r\n     */\r\n    function getEconomicVariables() external view\r\n    returns(uint, uint, uint, uint, uint) {\r\n        uint beerPrice = beverages[0].price;\r\n        uint winePrice = beverages[1].price;\r\n        return(beerPrice, winePrice, salaryRatio, dividendRatio, taxRatio);\r\n    }\r\n\r\n    /** @dev retrieves information of the current user\r\n     * @return string name of the user if any\r\n     * @return uint account balance\r\n     * @return uint type of the user\r\n     * 0: not in the blockchain\r\n     * 1: if owner\r\n     * 2: if employee\r\n     * 3: if gov\r\n     * 4: if ex-employee about to withdraw last fund\r\n     */\r\n    function getUserAccount(address _address) external view\r\n    returns(string, uint, uint) {\r\n        if(isOwnerMap[_address]) {\r\n            Owner memory _owner = ownersMap[_address];\r\n            return(_owner.name, _owner.balance, 1);\r\n\r\n        } else if(isEmployeeMap[_address]) {\r\n            Employee memory _employee = employeesMap[_address];\r\n            return (_employee.name, _employee.balance, 2);\r\n\r\n        } else if(_address == govAddress) {\r\n            return(\"government\", govBalance, 3);\r\n\r\n        } else if(lastPayCheckMap[_address]) {\r\n            Employee memory _exEmployee = employeesMap[_address];\r\n            return (_exEmployee.name, _exEmployee.balance, 4);\r\n        }\r\n\r\n        return (\"\", 0,  0);\r\n    }\r\n\r\n\r\n    // PUBLIC VIEW -------------------------------------------------------------\r\n\r\n    function getGovAddress() public view returns(address) {\r\n        return govAddress;\r\n    }\r\n\r\n    function getGovBalance() public view returns(uint) {\r\n        return govBalance;\r\n    }\r\n\r\n    function getTreasuryBalance() public view returns(uint) {\r\n        return treasuryBalance;\r\n    }\r\n\r\n    function getEmployeesListNumbers() public view returns(uint, uint){\r\n        return(employeesList.length, maxEmployees); //taken, max\r\n    }\r\n\r\n    function getOwnerListNumbers() public view returns(uint, uint){\r\n        return(ownersList.length, maxShares); //taken, max\r\n    }\r\n\r\n    function getContractBalance() public view returns(uint) {\r\n        return address(this).balance;\r\n    }\r\n\r\n    function getAvailableJobs() public view returns(uint) {\r\n        return maxEmployees - employeesList.length;\r\n    }\r\n\r\n    // INTERNAL ----------------------------------------------------------------\r\n\r\n    /** @return the value of a share in wei */\r\n    function _getSharePrice() internal view returns(uint){\r\n        return assetValue.div(maxShares); // in wei\r\n    }\r\n\r\n    /** @return the price of a beverage */\r\n    function _getPrice(uint _productId) internal view returns(uint) {\r\n        Beverage memory product = beverages[_productId];\r\n        return product.price;\r\n    }\r\n\r\n    /** @dev update the revenueAllocation whenever\r\n     * the manager changes the salaryRatio or the dividendRatio\r\n     * the govermnet changes the taxRatio\r\n     * Ratios are applied in this order: TaxRatio, SalaryRatio, DividendRatio\r\n     * remaining goes to the treasury\r\n     */\r\n    function _updateRevenuesOnProduct(uint _id) internal {\r\n        Beverage storage product = beverages[_id];\r\n        product.toGov = product.price.mul(taxRatio).div(100);\r\n        product.toEmployee = ( product.price.sub(product.toGov) ).mul(salaryRatio).div(100);\r\n        product.toShareHolders = ( product.price.sub(product.toGov).sub(product.toEmployee) ).mul(dividendRatio).div(100);\r\n        product.toTreasury = product.price.sub(product.toGov).sub(product.toEmployee).sub(product.toShareHolders);\r\n    }\r\n\r\n    // fallback ----------------------------------------------------------------\r\n    function () public authorized payable {}\r\n}\r\n",
  "sourcePath": "C:\\Users\\Jacques\\SOLIDITY-PROJECTS\\finalproject2\\contracts\\Entity.sol",
  "compiler": {
    "name": "solc",
    "version": "0.4.24+commit.e67f0147.Emscripten.clang"
  },
  "schemaVersion": "2.0.0",
  "updatedAt": "2018-08-27T00:13:51.240Z"
}