{
  "contractName": "Owners",
  "abi": [
    {
      "constant": false,
      "inputs": [],
      "name": "stopContract",
      "outputs": [],
      "payable": false,
      "stateMutability": "nonpayable",
      "type": "function"
    },
    {
      "constant": false,
      "inputs": [
        {
          "name": "_salaryRatio",
          "type": "uint256"
        }
      ],
      "name": "setSalaryRatio",
      "outputs": [],
      "payable": false,
      "stateMutability": "nonpayable",
      "type": "function"
    },
    {
      "constant": true,
      "inputs": [],
      "name": "getAvailableJobs",
      "outputs": [
        {
          "name": "",
          "type": "uint256"
        }
      ],
      "payable": false,
      "stateMutability": "view",
      "type": "function"
    },
    {
      "constant": true,
      "inputs": [],
      "name": "getEconomicVariables",
      "outputs": [
        {
          "name": "",
          "type": "uint256"
        },
        {
          "name": "",
          "type": "uint256"
        },
        {
          "name": "",
          "type": "uint256"
        },
        {
          "name": "",
          "type": "uint256"
        },
        {
          "name": "",
          "type": "uint256"
        }
      ],
      "payable": false,
      "stateMutability": "view",
      "type": "function"
    },
    {
      "constant": false,
      "inputs": [],
      "name": "withdraw",
      "outputs": [],
      "payable": false,
      "stateMutability": "nonpayable",
      "type": "function"
    },
    {
      "constant": false,
      "inputs": [
        {
          "name": "_priceInWei",
          "type": "uint256"
        }
      ],
      "name": "setBeerPrice",
      "outputs": [],
      "payable": false,
      "stateMutability": "nonpayable",
      "type": "function"
    },
    {
      "constant": true,
      "inputs": [],
      "name": "wineStock",
      "outputs": [
        {
          "name": "",
          "type": "uint256"
        }
      ],
      "payable": false,
      "stateMutability": "view",
      "type": "function"
    },
    {
      "constant": false,
      "inputs": [
        {
          "name": "_dividendRatio",
          "type": "uint256"
        }
      ],
      "name": "setDividendRatio",
      "outputs": [],
      "payable": false,
      "stateMutability": "nonpayable",
      "type": "function"
    },
    {
      "constant": true,
      "inputs": [],
      "name": "getContractBalance",
      "outputs": [
        {
          "name": "",
          "type": "uint256"
        }
      ],
      "payable": false,
      "stateMutability": "view",
      "type": "function"
    },
    {
      "constant": true,
      "inputs": [],
      "name": "beerStock",
      "outputs": [
        {
          "name": "",
          "type": "uint256"
        }
      ],
      "payable": false,
      "stateMutability": "view",
      "type": "function"
    },
    {
      "constant": true,
      "inputs": [],
      "name": "getEmployeesListNumbers",
      "outputs": [
        {
          "name": "",
          "type": "uint256"
        },
        {
          "name": "",
          "type": "uint256"
        }
      ],
      "payable": false,
      "stateMutability": "view",
      "type": "function"
    },
    {
      "constant": true,
      "inputs": [],
      "name": "getTreasuryBalance",
      "outputs": [
        {
          "name": "",
          "type": "uint256"
        }
      ],
      "payable": false,
      "stateMutability": "view",
      "type": "function"
    },
    {
      "constant": true,
      "inputs": [],
      "name": "getOwnerListNumbers",
      "outputs": [
        {
          "name": "",
          "type": "uint256"
        },
        {
          "name": "",
          "type": "uint256"
        }
      ],
      "payable": false,
      "stateMutability": "view",
      "type": "function"
    },
    {
      "constant": false,
      "inputs": [],
      "name": "resumeContract",
      "outputs": [],
      "payable": false,
      "stateMutability": "nonpayable",
      "type": "function"
    },
    {
      "constant": true,
      "inputs": [
        {
          "name": "_id",
          "type": "uint256"
        }
      ],
      "name": "getRevenueDistribution",
      "outputs": [
        {
          "name": "",
          "type": "uint256"
        },
        {
          "name": "",
          "type": "uint256"
        },
        {
          "name": "",
          "type": "uint256"
        },
        {
          "name": "",
          "type": "uint256"
        },
        {
          "name": "",
          "type": "uint256"
        }
      ],
      "payable": false,
      "stateMutability": "view",
      "type": "function"
    },
    {
      "constant": false,
      "inputs": [
        {
          "name": "_priceInWei",
          "type": "uint256"
        }
      ],
      "name": "setWinePrice",
      "outputs": [],
      "payable": false,
      "stateMutability": "nonpayable",
      "type": "function"
    },
    {
      "constant": true,
      "inputs": [],
      "name": "getGovBalance",
      "outputs": [
        {
          "name": "",
          "type": "uint256"
        }
      ],
      "payable": false,
      "stateMutability": "view",
      "type": "function"
    },
    {
      "constant": true,
      "inputs": [],
      "name": "getBarVariables",
      "outputs": [
        {
          "name": "",
          "type": "uint256"
        },
        {
          "name": "",
          "type": "uint256"
        },
        {
          "name": "",
          "type": "uint256"
        },
        {
          "name": "",
          "type": "uint256"
        },
        {
          "name": "",
          "type": "uint256"
        },
        {
          "name": "",
          "type": "uint256"
        }
      ],
      "payable": false,
      "stateMutability": "view",
      "type": "function"
    },
    {
      "constant": true,
      "inputs": [],
      "name": "getGovAddress",
      "outputs": [
        {
          "name": "",
          "type": "address"
        }
      ],
      "payable": false,
      "stateMutability": "view",
      "type": "function"
    },
    {
      "constant": true,
      "inputs": [],
      "name": "getBarFixData",
      "outputs": [
        {
          "name": "",
          "type": "string"
        },
        {
          "name": "",
          "type": "uint256"
        },
        {
          "name": "",
          "type": "address"
        },
        {
          "name": "",
          "type": "address"
        },
        {
          "name": "",
          "type": "uint256"
        },
        {
          "name": "",
          "type": "uint256"
        }
      ],
      "payable": false,
      "stateMutability": "view",
      "type": "function"
    },
    {
      "constant": true,
      "inputs": [
        {
          "name": "_address",
          "type": "address"
        }
      ],
      "name": "getUserAccount",
      "outputs": [
        {
          "name": "",
          "type": "string"
        },
        {
          "name": "",
          "type": "uint256"
        },
        {
          "name": "",
          "type": "uint256"
        }
      ],
      "payable": false,
      "stateMutability": "view",
      "type": "function"
    },
    {
      "payable": true,
      "stateMutability": "payable",
      "type": "fallback"
    },
    {
      "anonymous": false,
      "inputs": [
        {
          "indexed": true,
          "name": "_govAddress",
          "type": "address"
        }
      ],
      "name": "GovEvent",
      "type": "event"
    },
    {
      "anonymous": false,
      "inputs": [
        {
          "indexed": true,
          "name": "_ownerAddress",
          "type": "address"
        }
      ],
      "name": "OwnerEvent",
      "type": "event"
    },
    {
      "anonymous": false,
      "inputs": [
        {
          "indexed": true,
          "name": "_govAddress",
          "type": "address"
        }
      ],
      "name": "TaxRatioEvent",
      "type": "event"
    },
    {
      "anonymous": false,
      "inputs": [],
      "name": "BeerPriceEvent",
      "type": "event"
    },
    {
      "anonymous": false,
      "inputs": [],
      "name": "WinePriceEvent",
      "type": "event"
    },
    {
      "anonymous": false,
      "inputs": [],
      "name": "SalaryRatioEvent",
      "type": "event"
    },
    {
      "anonymous": false,
      "inputs": [],
      "name": "DividendRatioEvent",
      "type": "event"
    },
    {
      "anonymous": false,
      "inputs": [],
      "name": "WithdrawEvent",
      "type": "event"
    },
    {
      "constant": false,
      "inputs": [
        {
          "name": "_name",
          "type": "string"
        }
      ],
      "name": "beOwner",
      "outputs": [],
      "payable": true,
      "stateMutability": "payable",
      "type": "function"
    },
    {
      "constant": false,
      "inputs": [],
      "name": "beGovernment",
      "outputs": [],
      "payable": false,
      "stateMutability": "nonpayable",
      "type": "function"
    },
    {
      "constant": false,
      "inputs": [
        {
          "name": "_taxRatio",
          "type": "uint256"
        }
      ],
      "name": "setTaxRatio",
      "outputs": [],
      "payable": false,
      "stateMutability": "nonpayable",
      "type": "function"
    },
    {
      "constant": true,
      "inputs": [],
      "name": "getTaxRatio",
      "outputs": [
        {
          "name": "",
          "type": "uint256"
        }
      ],
      "payable": false,
      "stateMutability": "view",
      "type": "function"
    },
    {
      "constant": true,
      "inputs": [],
      "name": "getSharePrice",
      "outputs": [
        {
          "name": "",
          "type": "uint256"
        }
      ],
      "payable": false,
      "stateMutability": "view",
      "type": "function"
    }
  ],
  "bytecode": "0x608060405260008060006101000a81548160ff0219169083151502179055506000600160006101000a81548173ffffffffffffffffffffffffffffffffffffffff021916908373ffffffffffffffffffffffffffffffffffffffff1602179055506200006a620007eb565b33600060016101000a81548173ffffffffffffffffffffffffffffffffffffffff021916908373ffffffffffffffffffffffffffffffffffffffff1602179055506040805190810160405280600e81526020017f4841524420464f524b204341464500000000000000000000000000000000000081525060029080519060200190620000f892919062000805565b50681b1ae4d6e2ef5000006003819055506064600481905550600a60058190555061019060068190555060fa6007819055506021600881905550600a6009819055506028600a8190555060408051908101604052806040805190810160405280600f81526020017f424f4220544845204d414e41474552000000000000000000000000000000000081525081526020016000815250905080600d60003373ffffffffffffffffffffffffffffffffffffffff1673ffffffffffffffffffffffffffffffffffffffff1681526020019081526020016000206000820151816000019080519060200190620001ed9291906200088c565b5060208201518160010155905050600160153390806001815401808255809150509060018203906000526020600020016000909192909190916101000a81548173ffffffffffffffffffffffffffffffffffffffff021916908373ffffffffffffffffffffffffffffffffffffffff16021790555003600e60003373ffffffffffffffffffffffffffffffffffffffff1673ffffffffffffffffffffffffffffffffffffffff168152602001908152602001600020819055506001600f60003373ffffffffffffffffffffffffffffffffffffffff1673ffffffffffffffffffffffffffffffffffffffff16815260200190815260200160002060006101000a81548160ff02191690831515021790555060e060405190810160405280600060018111156200031857fe5b8152602001665575e121efee698152602001600073ffffffffffffffffffffffffffffffffffffffff1681526020016000815260200160008152602001600081526020016000815250601760006002811015156200037257fe5b6007020160008201518160000160006101000a81548160ff021916908360018111156200039b57fe5b02179055506020820151816001015560408201518160020160006101000a81548173ffffffffffffffffffffffffffffffffffffffff021916908373ffffffffffffffffffffffffffffffffffffffff160217905550606082015181600301556080820151816004015560a0820151816005015560c0820151816006015590505060e0604051908101604052806001808111156200043557fe5b8152602001663d0b0e85f485b88152602001600073ffffffffffffffffffffffffffffffffffffffff1681526020016000815260200160008152602001600081526020016000815250601760016002811015156200048f57fe5b6007020160008201518160000160006101000a81548160ff02191690836001811115620004b857fe5b02179055506020820151816001015560408201518160020160006101000a81548173ffffffffffffffffffffffffffffffffffffffff021916908373ffffffffffffffffffffffffffffffffffffffff160217905550606082015181600301556080820151816004015560a0820151816005015560c0820151816006015590505062000554600062000576640100000000026401000000009004565b6200056f600162000576640100000000026401000000009004565b506200093b565b60006017826002811015156200058857fe5b600702019050620005da6064620005bd60085484600101546200077f6401000000000262002138179091906401000000009004565b620007b5640100000000026200216b179091906401000000009004565b8160030181905550620006546064620006376009546200061a85600301548660010154620007d1640100000000026200211f179091906401000000009004565b6200077f6401000000000262002138179091906401000000009004565b620007b5640100000000026200216b179091906401000000009004565b8160040181905550620006f46064620006d7600a54620006ba85600401546200069d87600301548860010154620007d1640100000000026200211f179091906401000000009004565b620007d1640100000000026200211f179091906401000000009004565b6200077f6401000000000262002138179091906401000000009004565b620007b5640100000000026200216b179091906401000000009004565b81600501819055506200077381600501546200075683600401546200073985600301548660010154620007d1640100000000026200211f179091906401000000009004565b620007d1640100000000026200211f179091906401000000009004565b620007d1640100000000026200211f179091906401000000009004565b81600601819055505050565b60008082840290506000841480620007a257508284828115156200079f57fe5b04145b1515620007ab57fe5b8091505092915050565b6000808284811515620007c457fe5b0490508091505092915050565b6000828211151515620007e057fe5b818303905092915050565b604080519081016040528060608152602001600081525090565b828054600181600116156101000203166002900490600052602060002090601f016020900481019282601f106200084857805160ff191683800117855562000879565b8280016001018555821562000879579182015b82811115620008785782518255916020019190600101906200085b565b5b50905062000888919062000913565b5090565b828054600181600116156101000203166002900490600052602060002090601f016020900481019282601f10620008cf57805160ff191683800117855562000900565b8280016001018555821562000900579182015b82811115620008ff578251825591602001919060010190620008e2565b5b5090506200090f919062000913565b5090565b6200093891905b80821115620009345760008160009055506001016200091a565b5090565b90565b6122ea806200094b6000396000f300608060405260043610610154576000357c0100000000000000000000000000000000000000000000000000000000900463ffffffff16806312253a6c146101715780631a478b94146101885780631aa15bbe146101b55780631f731c5d146101e05780633ccfd60b146102275780634c2e589d1461023e5780634e3323171461026b5780635b1dac60146102965780635ef32e2c146102c157806360f46935146102ec5780636f9fb98a146103195780638e29e0271461034457806399866b6d1461036f5780639b5655dc146103a15780639cabe06e146103cc578063b55c56c1146103fa578063c4bc5da51461042c578063c655af3c14610443578063d0057fd9146104a0578063d3cd0dc9146104cd578063db41002b146104f8578063e16e7d0b1461050f578063ef4a63b81461055d578063fa33545c146105b4578063fb47e016146106bf578063fe303ebf14610789575b6000809054906101000a900460ff1615151561016f57600080fd5b005b34801561017d57600080fd5b506101866107b6565b005b34801561019457600080fd5b506101b36004803603810190808035906020019092919050505061082e565b005b3480156101c157600080fd5b506101ca6108eb565b6040518082815260200191505060405180910390f35b3480156101ec57600080fd5b506101f56108fc565b604051808681526020018581526020018481526020018381526020018281526020019550505050505060405180910390f35b34801561023357600080fd5b5061023c610959565b005b34801561024a57600080fd5b5061026960048036038101908080359060200190929190505050610f0e565b005b34801561027757600080fd5b50610280610fc4565b6040518082815260200191505060405180910390f35b3480156102a257600080fd5b506102ab610fca565b6040518082815260200191505060405180910390f35b3480156102cd57600080fd5b506102d6610fd9565b6040518082815260200191505060405180910390f35b3480156102f857600080fd5b5061031760048036038101908080359060200190929190505050610fe3565b005b34801561032557600080fd5b5061032e6110a0565b6040518082815260200191505060405180910390f35b34801561035057600080fd5b506103596110bf565b6040518082815260200191505060405180910390f35b34801561037b57600080fd5b506103846110c5565b604051808381526020018281526020019250505060405180910390f35b3480156103ad57600080fd5b506103b66110d9565b6040518082815260200191505060405180910390f35b6103f86004803603810190808035906020019082018035906020019190919293919293905050506110e3565b005b34801561040657600080fd5b5061040f611448565b604051808381526020018281526020019250505060405180910390f35b34801561043857600080fd5b5061044161145c565b005b34801561044f57600080fd5b5061046e600480360381019080803590602001909291905050506114d4565b604051808681526020018581526020018481526020018381526020018281526020019550505050505060405180910390f35b3480156104ac57600080fd5b506104cb600480360381019080803590602001909291905050506115e7565b005b3480156104d957600080fd5b506104e261169d565b6040518082815260200191505060405180910390f35b34801561050457600080fd5b5061050d6116a7565b005b34801561051b57600080fd5b506105246117ef565b60405180878152602001868152602001858152602001848152602001838152602001828152602001965050505050505060405180910390f35b34801561056957600080fd5b50610572611872565b604051808273ffffffffffffffffffffffffffffffffffffffff1673ffffffffffffffffffffffffffffffffffffffff16815260200191505060405180910390f35b3480156105c057600080fd5b506105c961189c565b60405180806020018781526020018673ffffffffffffffffffffffffffffffffffffffff1673ffffffffffffffffffffffffffffffffffffffff1681526020018573ffffffffffffffffffffffffffffffffffffffff1673ffffffffffffffffffffffffffffffffffffffff168152602001848152602001838152602001828103825288818151815260200191508051906020019080838360005b8381101561067f578082015181840152602081019050610664565b50505050905090810190601f1680156106ac5780820380516001836020036101000a031916815260200191505b5097505050505050505060405180910390f35b3480156106cb57600080fd5b50610700600480360381019080803573ffffffffffffffffffffffffffffffffffffffff1690602001909291905050506119a7565b6040518080602001848152602001838152602001828103825285818151815260200191508051906020019080838360005b8381101561074c578082015181840152602081019050610731565b50505050905090810190601f1680156107795780820380516001836020036101000a031916815260200191505b5094505050505060405180910390f35b34801561079557600080fd5b506107b460048036038101908080359060200190929190505050611ec7565b005b600060019054906101000a900473ffffffffffffffffffffffffffffffffffffffff1673ffffffffffffffffffffffffffffffffffffffff163373ffffffffffffffffffffffffffffffffffffffff1614151561081257600080fd5b60016000806101000a81548160ff021916908315150217905550565b600060019054906101000a900473ffffffffffffffffffffffffffffffffffffffff1673ffffffffffffffffffffffffffffffffffffffff163373ffffffffffffffffffffffffffffffffffffffff1614151561088a57600080fd5b6000811015801561089b5750606481105b156108e857806009819055506108b16000611f9b565b6108bb6001611f9b565b7f45f3a23c7e881769d4c9588f5bc54d911aaa242e98f6998be38c3703842c863560405160405180910390a15b50565b600060168054905060055403905090565b60008060008060008060006017600060028110151561091757fe5b600702016001015491506017600160028110151561093157fe5b600702016001015490508181600954600a546008549650965096509650965050509091929394565b600080600080600060019054906101000a900473ffffffffffffffffffffffffffffffffffffffff1673ffffffffffffffffffffffffffffffffffffffff163373ffffffffffffffffffffffffffffffffffffffff161480610a085750600160009054906101000a900473ffffffffffffffffffffffffffffffffffffffff1673ffffffffffffffffffffffffffffffffffffffff163373ffffffffffffffffffffffffffffffffffffffff16145b80610a5c5750600f60003373ffffffffffffffffffffffffffffffffffffffff1673ffffffffffffffffffffffffffffffffffffffff16815260200190815260200160002060009054906101000a900460ff165b80610ab05750601260003373ffffffffffffffffffffffffffffffffffffffff1673ffffffffffffffffffffffffffffffffffffffff16815260200190815260200160002060009054906101000a900460ff165b1515610abb57600080fd5b6000809054906101000a900460ff16151515610ad657600080fd5b3073ffffffffffffffffffffffffffffffffffffffff16319250600160009054906101000a900473ffffffffffffffffffffffffffffffffffffffff1673ffffffffffffffffffffffffffffffffffffffff163373ffffffffffffffffffffffffffffffffffffffff161415610bbc57600c5493506000600c819055503373ffffffffffffffffffffffffffffffffffffffff166108fc859081150290604051600060405180830381858888f193505050501515610b9357600080fd5b8383033073ffffffffffffffffffffffffffffffffffffffff1631141515610bb757fe5b610edc565b600060019054906101000a900473ffffffffffffffffffffffffffffffffffffffff1673ffffffffffffffffffffffffffffffffffffffff163373ffffffffffffffffffffffffffffffffffffffff161480610c615750600f60003373ffffffffffffffffffffffffffffffffffffffff1673ffffffffffffffffffffffffffffffffffffffff16815260200190815260200160002060009054906101000a900460ff165b15610d2157600d60003373ffffffffffffffffffffffffffffffffffffffff1673ffffffffffffffffffffffffffffffffffffffff168152602001908152602001600020915081600101549350600082600101819055503373ffffffffffffffffffffffffffffffffffffffff166108fc859081150290604051600060405180830381858888f193505050501515610cf857600080fd5b8383033073ffffffffffffffffffffffffffffffffffffffff1631141515610d1c57fe5b610edb565b601260003373ffffffffffffffffffffffffffffffffffffffff1673ffffffffffffffffffffffffffffffffffffffff16815260200190815260200160002060009054906101000a900460ff1680610dc25750601360003373ffffffffffffffffffffffffffffffffffffffff1673ffffffffffffffffffffffffffffffffffffffff16815260200190815260200160002060009054906101000a900460ff165b15610eda57601060003373ffffffffffffffffffffffffffffffffffffffff1673ffffffffffffffffffffffffffffffffffffffff168152602001908152602001600020905080600101549350600081600101819055506000601360003373ffffffffffffffffffffffffffffffffffffffff1673ffffffffffffffffffffffffffffffffffffffff16815260200190815260200160002060006101000a81548160ff0219169083151502179055503373ffffffffffffffffffffffffffffffffffffffff166108fc82600101549081150290604051600060405180830381858888f193505050501515610eb557600080fd5b8383033073ffffffffffffffffffffffffffffffffffffffff1631141515610ed957fe5b5b5b5b7fedf4c498a33515202a60039146725349bac735e8e1de60466b9ac800302cbae160405160405180910390a150505050565b60008060019054906101000a900473ffffffffffffffffffffffffffffffffffffffff1673ffffffffffffffffffffffffffffffffffffffff163373ffffffffffffffffffffffffffffffffffffffff16141515610f6b57600080fd5b60176000600281101515610f7b57fe5b600702019050818160010181905550610f946000611f9b565b7facc7b9eaf1ff3bee21db509289180435b1fdd8f49212c96e318c1f87fa9420ba60405160405180910390a15050565b60075481565b6000610fd46120e3565b905090565b6000600854905090565b600060019054906101000a900473ffffffffffffffffffffffffffffffffffffffff1673ffffffffffffffffffffffffffffffffffffffff163373ffffffffffffffffffffffffffffffffffffffff1614151561103f57600080fd5b600081101580156110505750606481105b1561109d5780600a819055506110666000611f9b565b6110706001611f9b565b7f31c61375bcb60f9eb97e6962303171d2eb0529486a0dbd519ecbbab89c21270460405160405180910390a15b50565b60003073ffffffffffffffffffffffffffffffffffffffff1631905090565b60065481565b600080601680549050600554915091509091565b6000600b54905090565b6110eb612186565b60008060009054906101000a900460ff1615151561110857600080fd5b60045460158054905010151561111d57600080fd5b600f60003373ffffffffffffffffffffffffffffffffffffffff1673ffffffffffffffffffffffffffffffffffffffff16815260200190815260200160002060009054906101000a900460ff1615151561117657600080fd5b61117e6120e3565b3414151561118b57600080fd5b6014848490501115151561119e57600080fd5b604080519081016040528085858080601f01602080910402602001604051908101604052809392919081815260200183838082843782019150505050505081526020016000815250915081600d60003373ffffffffffffffffffffffffffffffffffffffff1673ffffffffffffffffffffffffffffffffffffffff16815260200190815260200160002060008201518160000190805190602001906112449291906121a0565b5060208201518160010155905050600160153390806001815401808255809150509060018203906000526020600020016000909192909190916101000a81548173ffffffffffffffffffffffffffffffffffffffff021916908373ffffffffffffffffffffffffffffffffffffffff16021790555003600e60003373ffffffffffffffffffffffffffffffffffffffff1673ffffffffffffffffffffffffffffffffffffffff168152602001908152602001600020819055506001600f60003373ffffffffffffffffffffffffffffffffffffffff1673ffffffffffffffffffffffffffffffffffffffff16815260200190815260200160002060006101000a81548160ff021916908315150217905550600d60008060019054906101000a900473ffffffffffffffffffffffffffffffffffffffff1673ffffffffffffffffffffffffffffffffffffffff1673ffffffffffffffffffffffffffffffffffffffff16815260200190815260200160002090506113d56113c26120e3565b826001015461210190919063ffffffff16565b8160010181905550600160009054906101000a900473ffffffffffffffffffffffffffffffffffffffff1673ffffffffffffffffffffffffffffffffffffffff167fd30bb139b3decb2474a8d5025c92d2845a89e67e468c2cf3da2a9bb70c5e7ac460405160405180910390a250505050565b600080601580549050600454915091509091565b600060019054906101000a900473ffffffffffffffffffffffffffffffffffffffff1673ffffffffffffffffffffffffffffffffffffffff163373ffffffffffffffffffffffffffffffffffffffff161415156114b857600080fd5b60008060006101000a81548160ff021916908315150217905550565b60008060008060006114e4612220565b6017876002811015156114f357fe5b6007020160e060405190810160405290816000820160009054906101000a900460ff16600181111561152157fe5b600181111561152c57fe5b8152602001600182015481526020016002820160009054906101000a900473ffffffffffffffffffffffffffffffffffffffff1673ffffffffffffffffffffffffffffffffffffffff1673ffffffffffffffffffffffffffffffffffffffff16815260200160038201548152602001600482015481526020016005820154815260200160068201548152505090508060200151816060015182608001518360a001518460c00151955095509550955095505091939590929450565b60008060019054906101000a900473ffffffffffffffffffffffffffffffffffffffff1673ffffffffffffffffffffffffffffffffffffffff163373ffffffffffffffffffffffffffffffffffffffff1614151561164457600080fd5b6017600160028110151561165457fe5b60070201905081816001018190555061166d6001611f9b565b7fb61c7a90005ce2d07af7a8f94e006cca4ca972cc628406f4c86f9205e3ab303860405160405180910390a15050565b6000600c54905090565b600f60003373ffffffffffffffffffffffffffffffffffffffff1673ffffffffffffffffffffffffffffffffffffffff16815260200190815260200160002060009054906101000a900460ff1615151561170057600080fd5b6000600160009054906101000a900473ffffffffffffffffffffffffffffffffffffffff1673ffffffffffffffffffffffffffffffffffffffff1614151561174757600080fd5b33600160006101000a81548173ffffffffffffffffffffffffffffffffffffffff021916908373ffffffffffffffffffffffffffffffffffffffff160217905550600160009054906101000a900473ffffffffffffffffffffffffffffffffffffffff1673ffffffffffffffffffffffffffffffffffffffff167fe2ea68412b1c74abf741ffc807e10ee138cf8184ec4bbc5cfa2ece494df9f73d60405160405180910390a2565b600080600080600080600080600061181760158054905060045461211f90919063ffffffff16565b925061183360168054905060055461211f90919063ffffffff16565b91503073ffffffffffffffffffffffffffffffffffffffff163190508281600b5484600654600754985098509850985098509850505050909192939495565b6000600160009054906101000a900473ffffffffffffffffffffffffffffffffffffffff16905090565b606060008060008060006002600354600060019054906101000a900473ffffffffffffffffffffffffffffffffffffffff16600160009054906101000a900473ffffffffffffffffffffffffffffffffffffffff16600454600554858054600181600116156101000203166002900480601f01602080910402602001604051908101604052809291908181526020018280546001816001161561010002031660029004801561198c5780601f106119615761010080835404028352916020019161198c565b820191906000526020600020905b81548152906001019060200180831161196f57829003601f168201915b50505050509550955095509550955095509550909192939495565b60606000806119b4612186565b6119bc61227f565b6119c461227f565b600f60008873ffffffffffffffffffffffffffffffffffffffff1673ffffffffffffffffffffffffffffffffffffffff16815260200190815260200160002060009054906101000a900460ff1615611b2b57600d60008873ffffffffffffffffffffffffffffffffffffffff1673ffffffffffffffffffffffffffffffffffffffff168152602001908152602001600020604080519081016040529081600082018054600181600116156101000203166002900480601f016020809104026020016040519081016040528092919081815260200182805460018160011615610100020316600290048015611af95780601f10611ace57610100808354040283529160200191611af9565b820191906000526020600020905b815481529060010190602001808311611adc57829003601f168201915b505050505081526020016001820154815250509250826000015183602001516001829250809050955095509550611ebd565b601260008873ffffffffffffffffffffffffffffffffffffffff1673ffffffffffffffffffffffffffffffffffffffff16815260200190815260200160002060009054906101000a900460ff1615611c9257601060008873ffffffffffffffffffffffffffffffffffffffff1673ffffffffffffffffffffffffffffffffffffffff168152602001908152602001600020604080519081016040529081600082018054600181600116156101000203166002900480601f016020809104026020016040519081016040528092919081815260200182805460018160011615610100020316600290048015611c605780601f10611c3557610100808354040283529160200191611c60565b820191906000526020600020905b815481529060010190602001808311611c4357829003601f168201915b505050505081526020016001820154815250509150816000015182602001516002829250809050955095509550611ebd565b600160009054906101000a900473ffffffffffffffffffffffffffffffffffffffff1673ffffffffffffffffffffffffffffffffffffffff168773ffffffffffffffffffffffffffffffffffffffff161415611d3357600c5460036040805190810160405280600a81526020017f676f7665726e6d656e74000000000000000000000000000000000000000000008152509190809050955095509550611ebd565b601360008873ffffffffffffffffffffffffffffffffffffffff1673ffffffffffffffffffffffffffffffffffffffff16815260200190815260200160002060009054906101000a900460ff1615611e9a57601060008873ffffffffffffffffffffffffffffffffffffffff1673ffffffffffffffffffffffffffffffffffffffff168152602001908152602001600020604080519081016040529081600082018054600181600116156101000203166002900480601f016020809104026020016040519081016040528092919081815260200182805460018160011615610100020316600290048015611e685780601f10611e3d57610100808354040283529160200191611e68565b820191906000526020600020905b815481529060010190602001808311611e4b57829003601f168201915b505050505081526020016001820154815250509050806000015181602001516004829250809050955095509550611ebd565b600080602060405190810160405280600081525091908191508090509550955095505b5050509193909250565b600160009054906101000a900473ffffffffffffffffffffffffffffffffffffffff1673ffffffffffffffffffffffffffffffffffffffff163373ffffffffffffffffffffffffffffffffffffffff16141515611f2357600080fd5b60008110158015611f345750606481105b15611f985780600881905550611f4a6000611f9b565b611f546001611f9b565b3373ffffffffffffffffffffffffffffffffffffffff167ff5c78b4fba5c9dd9f3766d019ec37498d112c1bb4add75440e1a217dbcecc8d060405160405180910390a25b50565b6000601782600281101515611fac57fe5b600702019050611fde6064611fd0600854846001015461213890919063ffffffff16565b61216b90919063ffffffff16565b8160030181905550612028606461201a60095461200c8560030154866001015461211f90919063ffffffff16565b61213890919063ffffffff16565b61216b90919063ffffffff16565b8160040181905550612088606461207a600a5461206c856004015461205e8760030154886001015461211f90919063ffffffff16565b61211f90919063ffffffff16565b61213890919063ffffffff16565b61216b90919063ffffffff16565b81600501819055506120d781600501546120c983600401546120bb8560030154866001015461211f90919063ffffffff16565b61211f90919063ffffffff16565b61211f90919063ffffffff16565b81600601819055505050565b60006120fc60045460035461216b90919063ffffffff16565b905090565b600080828401905083811015151561211557fe5b8091505092915050565b600082821115151561212d57fe5b818303905092915050565b60008082840290506000841480612159575082848281151561215657fe5b04145b151561216157fe5b8091505092915050565b600080828481151561217957fe5b0490508091505092915050565b604080519081016040528060608152602001600081525090565b828054600181600116156101000203166002900490600052602060002090601f016020900481019282601f106121e157805160ff191683800117855561220f565b8280016001018555821561220f579182015b8281111561220e5782518255916020019190600101906121f3565b5b50905061221c9190612299565b5090565b60e0604051908101604052806000600181111561223957fe5b815260200160008152602001600073ffffffffffffffffffffffffffffffffffffffff168152602001600081526020016000815260200160008152602001600081525090565b604080519081016040528060608152602001600081525090565b6122bb91905b808211156122b757600081600090555060010161229f565b5090565b905600a165627a7a7230582055f7a79919ceff53f98a9ce3c54c358cc5ef538b8b97ce8ac8ebac6ded6121c20029",
  "source": "pragma solidity ^0.4.24;\r\n\r\nimport \"./Entity.sol\";\r\n\r\n/** @title Owners describes specific functions to endorse the role of the Government\r\nor to be a co-owner of the bar */\r\ncontract Owners is Entity {\r\n\r\n    event GovEvent (address indexed _govAddress);\r\n    event OwnerEvent (address indexed _ownerAddress);\r\n    event TaxRatioEvent (address indexed _govAddress);\r\n\r\n    /** @dev allows the current user to be an owner by buying 1 share (& 1 share\r\n    * only for the specify address) of the bar directly from the Manager.\r\n    * There is no sybil attack as this contract is supposed to be linked to\r\n    * official documents outside the blockchain. The Manager is supposed to acquire\r\n    * for non blockchain purposes documents of the co-owner.\r\n    * Everybody can be an owner as long as there are enough share available.\r\n    * All the remaining shares belong to the Manager.\r\n    */\r\n    function beOwner(string _name) external authorized isShareAvailable isNotOwner payable {\r\n        require(msg.value == _getSharePrice());\r\n        require(bytes(_name).length <= 20);\r\n        Owner memory _newOwner = Owner(_name, 0);\r\n        ownersMap[msg.sender] = _newOwner; // check memory storage state of a map\r\n        ownersIdMap[msg.sender] = ownersList.push(msg.sender) - 1;\r\n        isOwnerMap[msg.sender] = true;\r\n\r\n        Owner storage _manager = ownersMap[managerAddress];\r\n        _manager.balance = _manager.balance.add(_getSharePrice());\r\n        emit OwnerEvent(govAddress);\r\n    }\r\n\r\n    /** @dev allows the current user to claim the role of the government.\r\n    * in this prototype. Like a RPG, anyone can claim this role. IRL, this contract\r\n    * would be linked to real government document allowing only the goverment to\r\n    * claim this role. */\r\n    function beGovernment() external isNotOwner noGovYet {\r\n        govAddress = msg.sender;\r\n        emit GovEvent(govAddress);\r\n    }\r\n\r\n    /** @dev allows the government to define the tax ratio applicable on beverages */\r\n    function setTaxRatio(uint _taxRatio) external isGov {\r\n        if(_taxRatio >= 0 && _taxRatio < 100) {\r\n            taxRatio = _taxRatio;\r\n            _updateRevenuesOnProduct(0);\r\n            _updateRevenuesOnProduct(1);\r\n            emit TaxRatioEvent(msg.sender);\r\n        }\r\n    }\r\n\r\n    /** @return the ratio of taxes */\r\n    function getTaxRatio() public view returns(uint) {\r\n        return taxRatio;\r\n    }\r\n\r\n    /** for testing purpose of an internal function */\r\n    function getSharePrice() public view returns(uint) {\r\n        return _getSharePrice();\r\n    }\r\n}\r\n",
  "sourcePath": "C:\\Users\\Jacques\\SOLIDITY-PROJECTS\\finalproject2\\contracts\\Owners.sol",
  "compiler": {
    "name": "solc",
    "version": "0.4.24+commit.e67f0147.Emscripten.clang"
  },
  "schemaVersion": "2.0.0",
  "updatedAt": "2018-08-27T00:13:51.228Z"
}